:020000041000EA
:10000000002008205D0100101B0100101D010010E0
:100010001101001011010010110100101101001058
:100020001901001019010010190100101F01001022
:10003000110100101901001021010010230100100E
:100040001101001011010010110100101101001028
:100050001101001011010010110100101101001018
:100060001101001011010010110100101101001008
:1000700011010010110100101101001011010010F8
:1000800011010010110100101101001011010010E8
:1000900011010010110100101101001011010010D8
:1000A00011010010110100101101001011010010C8
:1000B00011010010110100101101001011010010B8
:1000C00011010010110100101101001011010010A8
:1000D0001101001011010010110100101101001098
:1000E0001101001011010010110100101101001088
:1000F0001101001011010010110100101101001078
:100100001101001011010010110100101101001067
:10011000EFF30580103800BE00BE00BE00BE00BE7A
:1001200000BE00BEF2EB8871C4300010E030001059
:10013000A001001090A31AE7D3DEFFFF42012110B7
:10014000FF0100007C330000793512AB4FF0000056
:100150001E49086006C881F3088810474FF05040D8
:10016000006810B14FF00000F2E70DA40ECC00299A
:1001700002D000F012F8F9E71549164A002000E015
:1001800001C19142FCD11449884714498847144958
:10019000884700BEFDE701C901C29A42FBD3704700
:1001A000E030001010010020E4040020B4340010FE
:1001B0000000082000000820B434001000100820BF
:1001C00000100820000000007047000008ED00E06B
:1001D000E404002018080020D92700103D1000106A
:1001E000D1270010F8B5C0460448054B10B583422E
:1001F00003D0044B002B00D0984710BDE40400202E
:10020000E40400200000000006480749091A8B108A
:10021000C90FC91810B5491003D0044B002B00D0EA
:10022000984710BDE4040020E40400200000000012
:1002300010B5074C2378002B09D1FFF7D5FF054BEC
:10024000002B02D00448AFF300800123237010BDBF
:100250006806002000000000442F0010054B10B578
:10026000002B03D004490548AFF30080FFF7CCFF13
:1002700010BDC046000000006C060020442F001096
:1002800030B50D46ADF5805D81B004464FF4805227
:10029000FF21684602F054FDD8222946684602F044
:1002A000C7FDEFF3108572B602F0DAFB20464FF47B
:1002B000805102F01DFE4FF480526946204602F044
:1002C0000FFE85F310880DF5805D01B030BD00BFD5
:1002D00070B50446314DCC2200210C3002F030FDC7
:1002E00025604FF440252E49A564E1612D494FF466
:1002F0008025216261624FF40021C4E90D514FF461
:10030000A015E5650325A5664FF4E01525670425CE
:100310000123E5674FF410150226234A0620626187
:10032000A261A3604FF4405223640523C4F88450B3
:100330004FF4301566651D4E607366601C4EE363B6
:1003400062642365A2656366E266A367C4F88020E1
:10035000E16421666167C4F888102661C4F88C30B6
:10036000C4E92432C4F8A03003F10143C4E92902EE
:1003700003F5E4130F48C4F89C1003F5EE53C4F8DA
:100380009850621E04F1D30C12F8011F4B406245D5
:1003900000FB03F3F8D1C4F8D43070BD5342495088
:1003A00033CBCC4500F07F45662611440400D800CD
:1003B00080B2E60E93010001504BF0B450491C6826
:1003C000504A8C42156804D08D4217D0F0BCFFF71C
:1003D0007FBF9A88042A49D0A542F7D1494B9A8811
:1003E000042AF3D1DA88D82AF0D15A7B511E072982
:1003F000ECD8197B9142E9D21B690DE09388042B5C
:10040000E4D1D388D82BE1D1537B591E0729DDD8FD
:10041000117B9942DAD213693B4AA3F13773A3F5F2
:10042000D8439342D2D80026364B384D1A46D3F8DB
:10043000D47003F1E24303F5C513354C03F6C553FD
:1004400012F8011B4B40A24205FB03F3F8D19F4277
:100450003DD1002E36D0294A2A4B92689B689A4299
:1004600030D3F0BCD822254902F0E2BCDA88D82A81
:10047000B2D15A7B511E0729AED8197B9142ABD21B
:100480001A692149A2F13772A2F5D8428A42A3D84B
:100490001A46D3F8D4701F491C4E1F4C12F8013B6A
:1004A0004B40A24206FB03F1F8D1154B9D4206D109
:1004B000144B9A88042A02D1DA88D82A0AD08F42AB
:1004C000CFD083E7D822F0BC0E4902F0B1BC002E99
:1004D000C7D17BE77A1A564256415A7B541E072CE5
:1004E000EDD81C7B9442EAD21B69074AA3F137730B
:1004F000A3F5D843934297D9E1E700BF00E003108A
:100500005342495000F003100037050F93010001DA
:10051000D4F00310C59D1C81D4E00310F0B4002773
:1005200082685F4E5F4D01325F4B604C82600146D6
:10053000C0E90065C0F8D470421ED33012F801CF74
:100540008CEA0303904204FB03F3F7D1584AC1F845
:10055000D4301468524B57489C42056806D09D42DF
:1005600019D04FF47830F0BCFFF78ABE9388042B83
:100570004BD0A542F5D14F4B9A88042AF1D1DA88A5
:10058000D82AEED15A7B501E0728EAD8187B904211
:10059000E7D21B690DE08388042BE2D1C388D82BF6
:1005A000DFD1437B5A1E072ADBD8027B9A42D8D27E
:1005B0000369414AA3F13773A3F5D8439342D0D8D6
:1005C00000263C4B394D1A46D3F8D47003F1E24370
:1005D00003F5C513394C03F6C55312F8010B43401C
:1005E000A24205FB03F3F8D19F423ED1002EB8D0C2
:1005F000F0BC304A2E4B90689B6898422CBF4FF459
:1006000078304FF47C30FFF73BBED388D82BB0D185
:10061000537B581E0728ACD8107B9842A9D2136987
:100620002548A3F13773A3F5D8438342A1D81446D4
:10063000D2F8D4001D4F1C4A214E14F8013B534000
:10064000B44207FB03F2F8D1154B9D4206D1194B7A
:100650009C88042C02D1DC88D82C0DD0904214BF89
:100660004FF478304FF47C307DE7002E0CBF4FF410
:1006700078304FF47C3076E7841A664266415C7BC2
:10068000651E072DEAD81D7BA542E7D21B690A4CDF
:10069000A3F13773A3F5D843A34292D9DEE700BF95
:1006A000534249500400D800C59D1C8193010001AC
:1006B00000E0031000F003100037050FD4F0031022
:1006C000D4E003102DE9F04F2DED028B91B00D46D3
:1006D000059002F0F9F91F211A2000F0A9FE00226E
:1006E0001A20114600F0C2FE00211A2000F0D2FEAE
:1006F0001F211B2000F09CFE00221B20114600F051
:10070000B5FE00211B2000F0C5FEB64B1F78002F60
:1007100000F088810DF1300940F69D01B24A53681E
:1007200013F48033FBD101391361F8D15A236C687B
:100730001A4602214FF01220A047DFF8E48209ABED
:10074000AA4FAB4C039358F8043B184604932B680C
:100750009847EB684FF4FA60984702E0052001F0F3
:100760001DFBAB6898470028F8D01E2001F016FB4F
:100770003B68A04A03F470431360142000214FF437
:10078000807A01F09FFA2B464FF0000B5546042665
:100790009A4626603B68D905FCD57B68013D502010
:1007A0000021ADB21BFA83FB01F08CFA002DF0D1D1
:1007B0005346AA461D460BF18002039B120A23F8FA
:1007C000022B3A68039382F480528A4B02F47042FF
:1007D0001A60142000214FF4807B01F073FA2B463D
:1007E00004265D469B4626603B68DA05FCD57B689F
:1007F000013D50200021ADB21AFA83FA01F062FAED
:10080000002DF0D10AF180031B0A3C22012104983B
:1008100029F8023BDBF804602823B047DBF80C30F2
:100820004FF4FA609847744B5D4698458BD1BDF8FC
:1008300024309FED721A06EE903ABDF82630F8EE9D
:10084000666A07EE903ABDF82830F8EE677A05EE52
:10085000103ABDF82A30B8EE455A05EE903A76EED9
:10086000E77ABDF82C30F0EE001A06EE103AF8EEFA
:10087000655A36EEC55A77EE817ABDF82E30B0EE65
:10088000082AB8EE466A07EE103A76EEE55AE5EE2B
:10089000217AF1EE002AB8EE477A36EEC66AE5EE26
:1008A000827AB1EE043A36EEC77AE6EE227ADFEDCE
:1008B000543AE7EE037A9FED534AC7EEA30AF4EEEB
:1008C000C40AF1EE10FADBF804407EDB9FED4E0A1D
:1008D000F4EEC00AF1EE10FA77D8BDF8303007EE2A
:1008E000103ABDF83A30B8EE477A06EE103ABDF845
:1008F0003830B8EE466A05EE903ABDF83630F8EE7C
:10090000655A05EE103ABDF83230B8EE455A07EE9A
:10091000903ABDF83430F8EE677A04EE903A77EE0C
:10092000677AF8EE644A77EE817A77EE644A37EEBA
:10093000455AE4EEA17A77EE655AE5EE027A37EE93
:10094000466AE5EEA27AE6EE037A87EEA36AB4EE93
:10095000C46AF1EE10FA38DBB4EEC06AF1EE10FAB8
:1009600033D8059E5023C6ED050A86ED066AC6ED0E
:10097000086A86ED097A782203214FF0C050A0471B
:10098000DFED227A96ED078AB4EEE78AF1EE10FAEF
:1009900006DBDFED1F7AB4EEE78AF1EE10FA01D93B
:1009A0009FED1C8A502302211A461B486C68A04701
:1009B0002B68194898470B4B41F6D7121B78002B30
:1009C00040F0B280013AFDD1B6E0782306211A4604
:1009D0001248A0474FF0000A504611B0BDEC028B00
:1009E000BDE8F08F150800200000305000000A40DC
:1009F00000200A4000100A405C2F00100000000098
:100A000000005C420000C8420000964400007A45A5
:100A100000A00C4633CBCC45001818180012120069
:100A2000442F0010504C5149204602F065F8072130
:100A300006460E2000F0FCFC07210C2000F0F8FC1C
:100A400007210D2000F0F4FC4FF48033F21D0C93CD
:100A5000F30143EA02333246012623F0C0434448FF
:100A60000D93444B0DF13009CDE90E3039464B461C
:100A7000204602F011F90E223346394620460096F0
:100A800002F0C4F8394602230C222046009602F0F8
:100A9000BDF84EF24E01D4F8DC30374A0520134041
:100AA00043F0806343F4E073C4F8DC30D4F8DC3006
:100AB000134043F0006343F4C073C4F8DC30C4F85F
:100AC000D81001F0E1FA07EE100A9FED2C6AB8EE9B
:100AD000477ADFED2B6AC7EE067A77EEA67ABCEE90
:100AE000E77A17EE103A9AB2E2B107EE102AB8EEA2
:100AF000477ADFED246A77EEC77A67EEA67AFCEED6
:100B0000E77ACDED037A9DF80C301B02012143EA10
:100B10000243154AC2F8C83013680B4313601A4BDE
:100B20001970F9E51346F1E70F494B6813F4803368
:100B3000FBD1013A0B61F8D10B4EAB689847124BD1
:100B400082461B7810BBB0222BB9013AFDD1F4E7E5
:100B5000013A3361F1D0736813F48033F8D07368CD
:100B600013F48033F7D1F3E7000030505C2F00100E
:100B70000E301040000006401FFCFFE30044AC496B
:100B80000000003B000080431508002040F2952241
:100B9000002B40F03481013AFDD1EB684FF4FA604C
:100BA00098472B6818209847AC4B42F611311B78B8
:100BB000002B40F008810139FDD14FF48079A84F16
:100BC000A84A3B68142003F4704300211360A84630
:100BD00001F078F804244D46A34E34603B68DB05F1
:100BE000FCD5013D50200021ADB27B6801F06AF8D0
:100BF000002DF2D1994B45461B7840F2E461002B61
:100C000040F0D8800139FDD100234FF00108039353
:100C1000964BDFED978ACDE9063AC246A8465FFAC1
:100C20008AF307EE903AF8EE677A67EE887AF5EE87
:100C3000C07AB6EE007AF1EE10FAACBF77EE877AA2
:100C400077EEC77AFDEEE77A17EE903AB3F5004FEC
:100C500080F2F08087498B42C0F21A814FEA034B41
:100C60001BFA83FB1BB20493069AD8F8003052F8A3
:100C7000040F06929847794B42F611301B78002BEF
:100C800040F0B3800138FDD1754C764923681420BB
:100C900003F470430B60002101F014F84FF00009D9
:100CA0004FF480760425704F3D602368DA05FCD54B
:100CB0006368013E50200021B6B219FA83F901F0B1
:100CC00001F8002EF0D1654B40F2E4651878002859
:100CD00040F08280013DFDD1059AD2ED056AF5EE26
:100CE000C06AF1EE10FA27D909F18003C3F30F238C
:100CF00007EE903A92ED087AF8EE677A77EE677A27
:100D00009FED5D6A87EEA67AB4EEC67AF1EE10FA30
:100D100012DDDFED5A7AB4EEE77AF1EE10FA0BD578
:100D2000DDED047AF8EEE77AC7EE876A78EEA68AF8
:100D3000039B0133DBB203930AF1010ABAF1060FF8
:100D40007FF46DAF454641F28852DDF81CA00028C3
:100D50005ED1013AFDD1039B002B64D007EE903A9F
:100D6000F8EE677ADFED466A88EEA77AB4EEE67AA7
:100D7000F1EE10FA57DBDFED437AB4EEE77AF1EEED
:100D800010FA50D80023059A82ED077A1046936234
:100D9000FFF7C4FB6423A02203214FF0C0506D680D
:100DA000A8472E4B41F23A121B78002B48D1013A4A
:100DB000FDD111E6344A536813F48033FBD1013975
:100DC0001361F8D120E7304A536813F48033FBD124
:100DD00001391361F8D1F0E65A462B4C6368DB0306
:100DE000FCD4013D2261F9D176E75A4626494B6889
:100DF000DC03FCD401380A61F9D1934644E7224967
:100E00004B6813F48033FBD1013A0B61F8D1C4E68F
:100E10001D494B6813F48033FBD1013A0B61F8D1C3
:100E2000039B002B9AD1782306211A466C68174839
:100E3000A047CFE547F6FF736FF0802B049313E7CD
:100E400011494B6813F48033FBD1013A0B61F8D19F
:100E5000504611B0BDEC028BBDE8F08F15080020A4
:100E600000000A4000100A4000200A40442F0010F1
:100E7000000000000180FFFFCDCC4C3E9A99B940A4
:100E800000007A4500A00C4600003050001212000D
:100E9000DFF804B00491E7E6018001804FF0504391
:100EA0005868C0F3800080F0010000F00100704736
:100EB00010B4016804690B1903F180531A6802F138
:100EC0006042B2F5022F12D8426894420FD258689D
:100ED00001F1805383420AD8114401F180518142CB
:100EE00094BF002000F001005DF8044B7047002023
:100EF0005DF8044B704700BF70B5064601F040F83E
:100F00004FF47A7304464FF0FF30E6FB03416FF075
:100F100000424FF05046A04272EB010373683ABFA3
:100F2000044615460D465A0711D405E0052000F089
:100F300035FF73685B070AD401F022F8201A65EBCD
:100F40000101012871F10001F0DA002070BD1E20BE
:100F500000F024FF012070BD024A5368DB03FCD47B
:100F6000106170470000205029B32DE9F0478146F9
:100F70000E461746984600240F4DDFF840A02B7808
:100F80002BB1DAF80430DB03FBD4CAF810903846F2
:100F900000F004FF2B7833B1DAF8043013F4803317
:100FA000FAD1CAF810304046013400F0F7FEA642EC
:100FB000E5D1BDE8F08770471608002000002050FA
:100FC000437B8B4229D901EB810100EB8103D86B74
:100FD00010F001001CD010B4586C5C6B221802F1A8
:100FE0008052116801F16041B1F5022F11D89B6B5D
:100FF00098420ED2506804F18052904209D31C44AA
:1010000004F18054A0422CBF002000F0010001E058
:10101000704700205DF8044B70470020704700BF08
:10102000044B1B7823B1044A5368DB03FCD41061E2
:10103000704700BF16080020000020502DE9F04343
:101040000220C1B000F036FA02204FF0000343EC5A
:1010500044000022012100F009FAAF49AF4801F035
:101060004BFD06210446032000F0E2F90123032290
:1010700000210093A94801F0C9FD4FF48033E11C21
:101080000A93E301A64A43EA0133A64D23F0C04385
:101090000520CDE90B320D9500F0F6FF07EE900A22
:1010A0009FEDA16AF8EE677ADFEDA06A87EE867A97
:1010B00037EE267AFCEEC77A17EE903A9BB2002BF9
:1010C00000F0AF8007EE903AF8EE677ADFED986AAD
:1010D00077EE677A67EEA67AFCEEE77ACDED037AD3
:1010E0009DF80C208D4D1B0443EA02210A912246F3
:1010F00000210AAB284601F0CFFD01222B688D4E5E
:1011000013432B600AA83270FFF756F90E988A4AEB
:10111000A0F13773A3F5D843934240F2AE8006AFF7
:101120001E2000F03BFE4FF050435A6852077AD41D
:101130005C6814F004047AD1784DDFF81482B4F5B9
:101140002F7F337800F0AB8043B16B68D803FCD4B9
:10115000A8FB04239B0003F4C0532B610A2000F07A
:101160001DFE4FF050435B680A345B07E7D540F63D
:10117000B8339C4200F03C81B4F52F7F57D3502305
:101180009DF8344002214FF4C0501A46FFF7ECFEA0
:1011900021460AA8FFF714FF002800F0BA800622B3
:1011A000B4FBF2F302FB1343DBB2052B15BF634F15
:1011B000634857F82300614F33780BB1FFF7CCFE3B
:1011C0004FF000084FF050450A2000F0E7FD6B6833
:1011D000580700F1C18008F10A08B8F5617FF3D320
:1011E0000AA88DF83440FFF799F921460AA8FFF7BD
:1011F000E7FE002800F011810623B4FBF3F203FBA5
:101200001243DBB2052B00F0068157F82300502370
:1012100078220321FFF7A8FE4FF4FA60FFF76CFE77
:1012200005E01A465EE74FF4167000F0B7FD9DF832
:1012300034309DF835209A4212D9142202FB03F370
:1012400003F580726A4452F89C2CD20708D503F14A
:1012500034040AAB1D192846FFF72AFE002838D1AE
:10126000782306214FF4C0101A46FFF77DFE0021B7
:101270006422084601F0E4F8FEE74FF47A74B0FB0C
:10128000F4F406AF3B46204605AA04A900F0C4FFCB
:10129000002840F0BA8021462A4800F02FF91F4D5F
:1012A000DFF8B08023B16B68DB03FCD4C5F8108095
:1012B0000A2000F073FD4FF050435B680A34590771
:1012C0003FF555AF40F6B8339C4200F0918033783B
:1012D000E8E746235A2203214FF0C050FFF744FEAF
:1012E0000AAB1C592A693378144404F18054D4E9B8
:1012F000005613B10020FFF72FFE022000F04EFD34
:1013000072B601F0ADFB104B9C6085F30888304746
:10131000FEE70E48094F4FE74C3000100000205008
:1013200000000670000C00200024F44A0000003B7E
:1013300000008043160800200037050F38300010E9
:1013400000181800742F001000ED00E000181818A5
:10135000CDCCCCCC00001212A8F11F08B8F5597FF3
:101360000CD89DF835300134E4B29C421FD3EBB960
:101370001C462B4833780BB1FFF7EEFD43F6982956
:101380004FF0000808F10A08C8453FF650AF0A20A0
:1013900000F004FD6B685A07F4D40A2000F0FEFC4C
:1013A0006B685B07ECD44FF014080DE7002404EBE6
:1013B00084030DEB83035B6ED90707D514200AABBA
:1013C00000FB04303430FFF773FD08B91448D1E74F
:1013D000144BA3FB04239B0803EB4303A4EB43033D
:1013E000DBB2052B02D057F82300C3E70E48C1E754
:1013F0000E4B0FCB87E80F004FF4FA60FFF77CFD30
:1014000039460AA8FFF75EF911E70498DDE90512ED
:1014100000F040FE84E60448F9E60148F7E600BF24
:1014200000181818ABAAAAAA001818005C300010FF
:1014300010B44FF480740C4B53F8202003EB80035E
:10144000C00082F0400200F1804003F5805C02F0B1
:10145000C00200F5203003F54053CCF80020416075
:101460001C605DF8044B70470480034010B4084CC6
:10147000C90041EA820154F8202004EB8003514066
:1014800003F5805301F00C015DF8044B19607047BF
:1014900004800340064B402203EB800319B103F59F
:1014A00000531A60704703F540531A60704700BF3D
:1014B0000480034030B44FF0000343EC440043EC9D
:1014C000400005254FF480740B4BC20053F82010E8
:1014D00003EB800081F0400102F1804303F52033EB
:1014E00001F0C00200F5805100F540500A605D60D7
:1014F000046030BC704700BF048003400FB400B5E7
:1015000083B0049C074801F08DFA3CB105A9204640
:10151000019101F043F9044801F084FA012001F03F
:1015200055F900BFA82F0010B82F0010EFF310805E
:1015300072B6064BD3E8CF1F01220029FAD1C3E8C7
:10154000412F0029F6D1BFF35F8F70478F0600202F
:101550000023034AC2E88F3F80F31088704700BF22
:101560008F06002070B58646EFF3108572B6124CD8
:10157000D4E8CF6F0120002EFAD1C4E8460F002E28
:10158000F6D1BFF35F8F4FF0010CC80801F00703DD
:101590000CFA03F31EF800C01CEA030608D14CEA5B
:1015A000030C0EF800C0C4E88F6F85F3108870BD7F
:1015B0001046FFF7A3FF00BF8F060020044A1078F3
:1015C000431CDBB2182B28BF10231370704700BFD9
:1015D000B80400204FF0E022936843F0005393607A
:1015E000704700BF0021044B03F12002C3E88F1FA6
:1015F00001339342FAD17047840600204FF0E02374
:101600004FF08032C3F80024C3F80424C3F8082440
:10161000C3F80C24C3F81024C3F81424C3F8182406
:10162000C3F81C24C3F82024C3F82424C3F82824B6
:10163000C3F82C24C3F8302462B67047012300F0AD
:101640001F029340400941B1800000F1604000F565
:101650006140C0F8803103607047024A203042F890
:101660002030704700E100E00123064A410952F8AA
:10167000212000F01F0003FA00F01040003818BFCE
:101680000120704700E100E0F8B50D46EFF3108748
:1016900072B6124ED6E8CF2F0123002AFAD1C6E83F
:1016A000423F002AF6D1BFF35F8F0D4B00F11004CB
:1016B0009B680C4A53F82430934203D0994201D0DE
:1016C00000F054FF064B9B6843F82450BFF35F8F34
:1016D0000023C6E88F3F87F31088F8BD8D060020F1
:1016E00000ED00E011010010014B0B440360704756
:1016F0008406002070B5104C104DAC420ED2FF266F
:10170000236863B1FFF75AFF01462046FFF7ECFF5D
:10171000A680BFF35F8F0834AC42F1D370BDFFF7F2
:101720004DFF01462046FFF7DFFF2671BFF35F8FB5
:101730000834AC42E4D370BDD4040020E40400209B
:101740000D4B1A68EFF3108172B6D2E8CFCF0120AB
:10175000BCF1000FF9D1C2E84C0FBCF1000FF4D17D
:10176000BFF35F8F00221B68C3E88F2F81F31088BF
:1017700040BF00200021704710080020000000003A
:101780002DE9F04F2DED028B85B0EFF30583DBB231
:10179000103B9A0818BF01224FF0010103F0030B20
:1017A00018BFAD4DAD4B08BFAD4D0BEB820253F8EA
:1017B000226001FA0BF205F541539FEDA58B0192D2
:1017C0005A6031E0B3881B0440F19580B379002B57
:1017D00040F0DF80B6F90830002B0093C0F205819D
:1017E0001A46736902EB420403EBC403D3E90247D0
:1017F000B7F1FF3F08BFB4F1FF3F0ED005EB8B01FF
:10180000AB6A0A69D21AE31A934205D301232A6A02
:1018100003FA0BF3134200D10C61284600F0A8FB39
:10182000A042B941C0F2E180B6F90830019A002B1C
:101830000093EA63C6DBD6F8148003EB430928461D
:1018400008EBC907D7E9024A00F092FBA04271EB0E
:101850000A01B7DBBAF1000FC0F2CD80D7E904313D
:10186000804A934200F000817A88B6F9080092B26B
:1018700042EA0040984702460B4652EA030100F054
:10188000BA80002B80F2D580B4EB020E6AEB030A1B
:1018900038F93930C7E902EA002B93DB716903EBB1
:1018A000430201EBC202D2E90270BE457AEB000CA2
:1018B0004FEA430286DBB4462CF8083F06E003EB10
:1018C000430001EBC0005A00D0E90270BE451A4443
:1018D0007AEB000001EBC20404DB31F93230A4469C
:1018E000002BECDA28F83930009BACF80030B388D4
:1018F0001B043FF56BAF3369EFF3108272B6D3E888
:10190000CF0F01210028FAD1C3E8401F0028F6D1EB
:10191000BFF35F8F4FF6FF74B0880023316900B2C8
:10192000B480C1E88F3F82F310889842FFF64EAF33
:101930000746A946746906F1080807EB470E04EB51
:10194000CE03D3E90250B6F90830C446002B13DBAE
:10195000B246009704E034F936309446002B09DB98
:1019600003EB430604EBC602D2E90271BD4270EB01
:101970000101F0DA5646009FACF8007034F93E7071
:1019800024F83E30002FD8DAB3794D46002B3FF4CF
:1019900021AF0023B371B6F9083006F1080E5F1CC1
:1019A000009322D09C46706902E08E465A1C16D0E5
:1019B00003EB430200EBC2014C881F46240430F9BC
:1019C0003230F2D5BC4581ED028BEFD0AEF800305D
:1019D0003189BC4620F832105A1C3781E8D1634661
:1019E000002BCDF800C0BFF6FBAE40BF05B0BDEC8C
:1019F000028BBDE8F08F38F8393033813369EFF36B
:101A0000108272B6D3E8CF0F01210028FAD1C3E8C3
:101A1000401F0028F6D1BFF35F8F7388316928F823
:101A20003930009B73800023C1E88F3F82F3108818
:101A3000C8E62846CDE9022300F09AFA029A039BF1
:101A400010EB020E43EB010A22E700BFAFF3008068
:101A5000FFFFFFFFFFFFFFFF00800B40F0070020AC
:101A600000000B408117001008460B69029198474F
:101A70000028C0D00299D1E90023FEE62DE9F84FF5
:101A8000364C25692DB1BDE8F84F0A213448FFF7DF
:101A90002BBEDFF8E4800321404600F057FA03260E
:101AA000C4F80C80FFF78AFD4FF0504C2D4B267088
:101AB00003442361DCF800300F21637063696180A7
:101AC0001D834FF00405A3F878504FF00505A3F8E7
:101AD00090504FF00605A3F8A8504FF007050E21CF
:101AE0004FF6FF7208274FF00A0EA3F8C0504FF0D0
:101AF00001094FF00C0C4FF0020B4FF0090A0D20BA
:101B00004FF00B05A3F868111749A280A3F808E16C
:101B1000A160A3F848B0A3F8F0A0A3F82051A3F85F
:101B200038C1A3F85001A3F83090A3F86060A3F87F
:101B3000D8701A800D4B3046C8F820700C49DC6014
:101B4000FFF7A2FD49463046FFF778FD094B0A2111
:101B50001F640348BDE8F84FFFF7C6BDBC04002072
:101B60001008002084060020FFFF1000F00700206E
:101B70008117001000200B4000000B400146F0B51B
:101B80000069EFF3108772B6D0E8CF5F0124002D13
:101B9000FAD1C0E8454F002DF6D1BFF35F8FB1F900
:101BA00002E04C690EEB4E0CBEF1000F4FEACC0583
:101BB000086904EBCC0C3CDB665B4E800026C0E879
:101BC0008F6F87F31088BCF80200CCE90223013044
:101BD000C0F30E00012838BF0120059BACF80200BD
:101BE000CCF81030069B40EA0E40CCF814300B695C
:101BF000EFF3108272B6D3E8CFCF0127BCF1000F0C
:101C0000F9D1C3E84C7FBCF1000FF4D1BFF35F8F73
:101C10008B886353A1F804E00B69C3E88F6F82F3EC
:101C200010880122CB68097803F501538A405A6075
:101C3000F0BD0023C0E88F3F87F310884FF0FF30DE
:101C4000F0BD00BF03464089B0EB214F37DD586936
:101C50000A1402EB420210B500EBC2001C69EFF35C
:101C6000108C72B6D4E8CFEF0122BEF1000FF9D18B
:101C7000C4E84E2FBEF1000FF4D1BFF35F8F42884E
:101C800089B292B28A4207D000221B69C3E88F2F23
:101C90008CF31088002010BD42F4004242800121E4
:101CA000002218699971C0E88F2F8CF310881C7876
:101CB000DA68084602F50153A140596010BD0020C2
:101CC000704700BF2DE9F04182B004460E4600F097
:101CD00057F94FF0FF326FF00043241846EB01062E
:101CE000A24273EB06013CBF14461E46A51F46F1F7
:101CF000FF37AC4276EB07033CBF00252F4600F0D0
:101D00003FF9281A67EB010C01287CF1000C06DA78
:101D10002046314602B0BDE8F04100F03BB900F08A
:101D20002FF9854267EB010100290ADB0021174BDF
:101D30002A46009316483B460191FFF71FFF0130EA
:101D4000E6D04FF0000C134A1349536A9F4204D85F
:101D5000906AA842DCD29F42DAD10B68EFF3108080
:101D600072B6D3E8CF8F5FF0010EB8F1000FF8D153
:101D7000C3E848EFB8F1000FF3D1BFF35F8F0B68F2
:101D8000C3E88FCF80F3108820BFDEE74117001033
:101D9000BC04002000000B40100800202DE9F04199
:101DA00082B0064600F0ECF84FF47A7304464FF028
:101DB000FF306FF00042E6FB0341A04272EB0103EB
:101DC0003ABF044615460D46A61F45F1FF37B442FB
:101DD00075EB07033CBF0026374600F0D1F8301AF8
:101DE00067EB0101012871F1000106DA204629465E
:101DF00002B0BDE8F04100F0CDB800F0C1F8864275
:101E000067EB010100290ADB0021174B32460093E2
:101E100016483B460191FFF7B1FE0130E6D04FF086
:101E2000000C134A1349536A9F4204D8906AB04287
:101E3000DCD29F42DAD10B68EFF3108072B6D3E8A0
:101E4000CF8F5FF0010EB8F1000FF8D1C3E848EF73
:101E5000B8F1000FF3D1BFF35F8F0B68C3E88FCFEA
:101E600080F3108820BFDEE741170010BC0400207B
:101E700000000B40100800202DE9F04306460D46F7
:101E800083B0EFF30584E4B23CB12D4B5A6AAA4209
:101E90001CD2002003B0BDE8F0832A4FD7F80C9085
:101EA00097F80080484600F063F808F1040859F8F4
:101EB00028301B1A301A65EB0101984271F10001BC
:101EC00010DB20BF1E4B5A6AAA42E2D314BF012482
:101ED00000249B6AB34234BF204644F0010003B0A3
:101EE000BDE8F08300F04CF8864265EB0101002963
:101EF00014DB154B3846CDE9003432462B46FFF74C
:101F00003DFE011E0ADD0E4B5A6AAA4216D39B6A99
:101F1000B34211D30B48FFF795FEB6E7084B5C6A56
:101F2000AC42B6D3641B18BF01249B6AB34234BFD2
:101F3000204644F00100ADE7AA42EBD120BFE9E71B
:101F400000000B40BC0400204117001010B4054BEA
:101F5000054C064AA04214BF1846581C5DF8044BB5
:101F6000FFF700BBB007002000800B40BC2F001023
:101F70000346416A0A46986A596A8A42FAD170470A
:101F8000034B596A0A46986A596A9142FAD17047D6
:101F900000000B40074A536A9942FCD8994207D186
:101FA000044B02E05A6A914202D19A6A9042F9D8EF
:101FB000704700BF00000B4000EB400C4FEA8C0C58
:101FC0000CF1804C0CF5803CF0B51646DCF8042092
:101FD000051FB2F5803F38BF4FF48032EDB238BFF5
:101FE000CCF80420012D2AD94FF40067254C0CF5BC
:101FF0004052176054F82020B2B9DCF80020012DBF
:1020000082EA461202F0E0020CF5805632602AD9CC
:102010004FF4006144F820304FF480330CF5005247
:102020001160CCF80430F0BD6769B7FBF2FE0EF129
:10203000010E0EEB4E0EBEF1030EFCD2DDE70129C0
:10204000D2D103240CF540521460DCF80820D207EA
:10205000FBD5DCF800200B4C82EA461202F0E002CD
:102060000CF5805632600122DCF800504D4005F03E
:102070000305356002FA01F1DCF808200A42FBD0C2
:10208000C6E700BFB4070020014B53F8200070479B
:10209000B4070020584B2DE9F0431C6C1746B4F5EB
:1020A000803F38BF4FF4803283B038BF1A640322B8
:1020B00080460E46514B504DDA636C6CE307FCD5FD
:1020C000EB6B4F4A83F0200303F0E003D363EB6B29
:1020D000494D83F0010303F00303D3636C6CA40741
:1020E000FCD54FF400624FF48039464B464CDA631E
:1020F000464B4246636101213346C5F8409044484F
:10210000009700F057F94FF400616B6B07FB06F680
:102110004B4538BFC5F83490384B2269B8FBF6F60A
:1021200019633AB16369B3FBF2F3013303EB430381
:10213000033BFDD23049324A0B6B03F0E0031363DB
:102140000B6B83F0020303F0030313638B6B5807DD
:10215000FCD54FF400654FF480332A4A15632D4AAD
:102160004B6322610A6C9A424FF0030238BF0B6442
:10217000224B2149DA634B6CDA07FCD5CB6B204A42
:1021800003F0E003D363CB6B1B4983F0010303F03F
:102190000303D3634B6C9B07FCD54FF480334FF4A0
:1021A0000065184A6661D5630B64CA6C9A4238BFF1
:1021B000CB644FF40061114BA26999643AB1636931
:1021C000B3FBF2F3013303EB4303033BFDD24FF4C4
:1021D00000604FF48031084A094D936C83F040034E
:1021E00003F0E003AB64074B084DA5619864D1642C
:1021F00003B0BDE8F08300BF0000014000300140A3
:102200000010014000200140B4070020006CDC02F7
:1022100000000540001BB7002DE9F04F4FF4A078F7
:10222000994685B0CDE902125F4CDFF884A1544590
:102230000AD908F1FF38A4F53B54B8F10F0FA4F107
:102240002004F4D1002069E0072304F5372201942B
:1022500003FB03F402F5D872B2FBF4FE86454FF09F
:10226000010C4FF002074FF003064FF004054FF04A
:1022700005013FD0B3F1010E00F094800EFB03F492
:10228000B2FBF4FB58454CD019B303FB01F4B2FB8D
:10229000F4FB58454FD0E5B105FB03F4B2FBF4FB6A
:1022A000584553D0AEB106FB03F4B2FBF4FB5845DE
:1022B00057D077B107FB03F4B2FBF4FB58455BD072
:1022C000BCF1000F05D00CFB03F4B2FBF4FB83451B
:1022D0005DD0734603FB03F4B2FBF4FE864501F1C7
:1022E000FF3105F1FF3506F1FF3607F1FF370CF13D
:1022F000FF3CBFD104FB1024002CBBD19E464A46B4
:10230000DDF808B0DDF80C900120284901FB08F148
:10231000CBF80010C9F80030C2F800E005B0BDE805
:10232000F08F04FB1024002CAED14A46DDF808B033
:10233000DDF80C90E8E704FB1024002CABD14A46F2
:102340008E46DDF808B0DDF80C90DDE704FB1024C4
:10235000002CA7D14A46AE46DDF808B0DDF80C9057
:10236000D2E704FB1024002CA3D14A46B646DDF880
:1023700008B0DDF80C90C7E704FB1024002C9FD1B7
:102380004A46BE46DDF808B0DDF80C90BCE704FB19
:102390001024002C9DD14A46E646DDF808B0DDF851
:1023A0000C90B1E7019C44E750262F00001BB700BA
:1023B00050F80C0070B4039D04682D0345EA0345F2
:1023C0001B4B002CB3FBF1F3B2FBF3F61FDB194AF6
:1023D000194B904214BF4FF480424FF40042174C07
:1023E0001A6003F580531A60A36832EA0303FBD135
:1023F000212200F540530433016086601A600268B0
:10240000002AFCDA0822C5601A6070BC70470368B5
:1024100003F03F038B42DAD18368C3F30B03B3426B
:10242000D5D1C36803F4EE23AB42D0D1EDE700BFB2
:10243000001BB70000800540002002400000024061
:1024400030B44FF080441C4B1C60E0B11B4CA3F532
:102450004053DC611A4C40F0010044401C62596258
:1024600098624FF080454FF0E061134B1548164CD1
:102470001D60846019604AB930BC4FF00042A3F57A
:1024800080531A607047114BD861EAE74FF47A73B2
:1024900003FB02F2B2F1807F2ABF6FF07F43134645
:1024A0001A464FF080410A4C08482360094B4260AD
:1024B00030BC1960704700BF00B00D40D3C007B0FA
:1024C0002D3FF84F00A00140F3FFFF0100800D40B9
:1024D000E807002000A00D40012300EB4000800031
:1024E00000F1804000F5841041600360704700BF38
:1024F0000023DB8A002242E800F2520201D41021BC
:1025000018470421184700BF034AD2F82838002B87
:10251000FBD0BFF35F8F704700000E400021044BDB
:10252000044ABFF35F8F43F8041B9342F9D170470D
:102530000C080E402C080E4010B44FF48D704FF470
:102540002A64064A064B07491460D0601960536834
:10255000002BFCDA5DF8044B704700BF008004409C
:1025600000A0044000B0FA00704700BF08B5014861
:10257000FEF7C4FFE02F001038B5054C054DAC4206
:1025800004D254F8043B9847AC42FAD338BD00BF9C
:10259000002F0010402F001010B40748074C084BC4
:1025A000084A094904601A608B6832EA0303FBD1C8
:1025B0005DF8044B704700BF002002407F3BEFEF07
:1025C00000300240F6FFF30300000240044BDB6CD6
:1025D000B3F5004F03D14FF48022024BDA64704709
:1025E00000001150002011504FF0E022044BD2F8AF
:1025F000881D0B43C2F8883D10EE3004704700BFC1
:10260000030330006FF06041044B054A1960936882
:10261000DB4333F06043FAD1704700BF0030024023
:102620000000024010B545F25320FFF761FFBDE8FE
:10263000104003460420184710B545F25320FFF719
:1026400057FFBDE81040034601201847FEF7CABFF8
:102650001449154B70B55C1AA610442E324628BF9B
:102660004422124D9200284600F0E2FBB4F5867F2A
:1026700013D80F4AC6F1440012D02B19410803EBBE
:10268000C101C3E9002208338B42FAD1C30704D544
:1026900020F00100304445F82020064B9D6070BDBD
:1026A0004320F8E700000010100100100000002097
:1026B0001101001000ED00E0002370B52B4C82B03A
:1026C000C4F88430FFF738FF0122294BDA63636CCA
:1026D000012BFCD10321264A244B11639C6B012C56
:1026E000FCD10226052521460523224A22480096D0
:1026F000FFF760FE21462B46204A21480095FFF750
:1027000059FE0022042031461E4BFFF755FC21469E
:10271000284600221C4BFFF74FFC002208201146E0
:102720001A4BFFF749FC002209201146174BFFF70F
:1027300043FC002206201146134BFFF73DFC00220C
:10274000114B07201146FFF737FC0420FFF79CFCD4
:1027500000240F4BA3FB0035AD0CE0B22946013439
:10276000FFF7BAFE062CF8D102B070BD00000140A0
:1027700000300140002F685900000540008C86475A
:1027800000800540001BB70080D1F008006CDC021F
:1027900083DE1B4300B9704700F002B910B5094B46
:1027A00084B01C684CB1034600914FF0FF3203A97E
:1027B0000548A047012004B010BD00F033F92046C1
:1027C00004B010BDE40700209527001000BEFDE70F
:1027D00008B5FFF7FBFF00BF38B5064C064DFFF705
:1027E000CBFEAC4204D254F8043B9847AC42FAD337
:1027F00038BD00BF402F0010442F0010036808466A
:10280000114618472DE9F0411546427D0746884696
:10281000002A46D0002D1DDD0B780A2B23D0012D78
:102820004FF0000C18D04646012416F8012F21461F
:102830000A2A04F1010422D0A542F6D165450BDC39
:1028400008EB050313F8013CA3F10D03B3FA83F37E
:102850005B093B75BDE8F0813B68A5EB0C0108EB1B
:102860000C009847ECE7037D002BD8D103680221C8
:102870000F489847012DE3D04FF0010CD3E716F82D
:10288000013C0D2BD8D08C4508EB0C00A1EB0C01C2
:1028900001DA3B689847022105483B689847A446FF
:1028A000CAE7294640463B68BDE8F041184700BFEB
:1028B000C03000102DE9F04782B00D4691461C460D
:1028C0000646FFF75DFB4FF0FF3C6FF000472E4AD6
:1028D000821841F10003944577EB03013CBF624647
:1028E0003B462A4800F008FB6B1C804640D00CB3E6
:1028F000274F284B1C68B4B1B9F1000F1CD1DFF889
:102900009C9001E0246974B12368002BFAD0D9F8B7
:1029100000300BB19C42F5D120462A463146B847DB
:102920002469002CF0D1B8F1000F26D1284602B05E
:10293000BDE8F087184FDCE74FF00A0ADFF85C903B
:1029400002E02469002CEED02368002BF9D0D9F8DE
:1029500000300BB1A342F4D12A4631462046B84795
:10296000012220460DF107018DF807A0B847E8E7DE
:10297000304600F02FFA0546B9E7044800F0B4FAF3
:10298000284602B0BDE8F08740420F00DC0400207A
:1029900005280010DC070020FD270010E0070020BC
:1029A000F0B583B006468DF80700FFF7E9FA4FF05F
:1029B000FF356FF00044174A821841F10003954239
:1029C00074EB03013CBF23462A46134800F094FAF7
:1029D000124B07461C689CB1114D01E024697CB183
:1029E0002368002BFAD02B680BB19C42F6D120460D
:1029F00001220DF10701FFF705FF2469002CEFD13B
:102A000017B9304603B0F0BD034800F06DFA304608
:102A100003B0F0BD40420F00DC040020DC070020C2
:102A2000E007002038B5044600F0D4F9012305463C
:102A30001A4620462946FFF73DFF084B1C682CB17B
:102A400063682BB198472469002CF9D1284638BD1A
:102A50002469002CF4D1284638BD00BFDC070020D3
:102A60004FF08071144B154A10B559605368D80166
:102A7000FCD51920FEF7F8FD002104461920FEF7C9
:102A8000DDFD4FF080714FF0000C4FF050420C4BC9
:102A90000C4880F801C05960136DD90703D420BFDA
:102AA000136DDB07FBD54FF050432146BDE81040C6
:102AB00019209B6DFEF7C2BD00A0014000800140BF
:102AC00000B00140EC070020012307480749084AED
:102AD00003600B609368D907FCD50123054A136096
:102AE0001368DB05FCD5704700200240003002402F
:102AF0000000024000000A402DE9F84F0D4606464E
:102B0000FEF714FD012395F8048095F905C006F140
:102B10002F4E3D4F0EF5600E03FA08F34FEA1E5E8E
:102B2000BCF1000F57F82E1003F1FF33C8F1200459
:102B30003CDBA44503DC03FA0CF20A4206D04FF05A
:102B4000FF34FEF705FD2046BDE8F88FD6F8682172
:102B5000EC79002A4AD162073AD4644603FA0CF3AE
:102B60000B403CD1B8F1000F19D02A68A2F102093C
:102B700039F802AF0CEB0308BAF5005F08F1120850
:102B80000CEB0A0B35D246F828B02A7901339A4269
:102B9000EED801239340013B03FA0CF3194347F8A5
:102BA0002E10FEF7D5FC2046BDE8F88F002C02DA87
:102BB00015E0013C13D303FA04F20A42A446F8D10B
:102BC000D6F86891EA79B9F1000F19D15207C5D545
:102BD0006FF00A04FEF7BCFC2046BDE8F88F6FF0EA
:102BE0000804FEF7B5FC2046BDE8F88FE407B4D52D
:102BF000EEE746F828A02A7901339A42B8D8C8E708
:102C0000D207ABD5E4E700BFA40600202DE9F041D0
:102C1000D0F868419DF81860121B1F2A38D84EF270
:102C20009F044EF280054FF4003801EB410C002E5A
:102C300018BF254600EBCC0404F5435400EBCC0C44
:102C4000052BDCF8DC704FEA410EDCF8CC60C4F8F0
:102C50000C800CD95401053B44F0A0540532052BDF
:102C6000CCF8DC4002F01F02CCF8D850F2D8714406
:102C700000EBC1010020520142EA8363C1F8DC305D
:102C8000C1F8D850C1F8DC70C1F8CC60BDE8F08163
:102C90006FF00400FAE700BFF0B5012504688D402D
:102CA00024EA05040460B3B31C6801EB410C00EB9B
:102CB000CC0CCCF8C8409C68CCF8D0405C68CCF810
:102CC000CC40DB68CCF8DC304FEA410C0CEB010364
:102CD0004FF0013500EBC30C4FF0004600EBC30E84
:102CE00001230EF5865E0C1D01F108078D40CEF81C
:102CF000106003FA04F4CEF8106002F01F02856041
:102D0000BB4000F5005004600EF1100E036000207F
:102D1000CCF8D820F0BD4FF480374FF440264FF464
:102D2000F83501EB410400EBC404C4F8C8704FEA65
:102D3000410CC4F8D060C4F8CC50C4F8DC30C5E70E
:102D4000F0B5830741D0050004000327861804E08E
:102D5000297001353B4204D01C00631CB442F7D1FA
:102D6000F0BD013A8218121B032A25D9FF240C401A
:102D700025022D192C042D190F2A28D91C00130007
:102D80002600103B1B091B0110369B19256065604E
:102D9000A560E5601034A342F8D10F240C2614403E
:102DA00016402200002E07D0A2089200D21820C39D
:102DB0009342FCD103222240002AD1D0C9B29A18F2
:102DC000197001339A42FBD1CAE70300CCE7140023
:102DD000EAE7C04610B583070AD00300032102E0EA
:102DE00001330B4205D01A78002AF9D1181A10BD08
:102DF000030019680C4A0D4C8A188A4322420FD1ED
:102E00005968094A04338A188A43224208D159680A
:102E1000054A04338A188A432242F1D000E0013384
:102E20001A78002AFBD1E1E7FFFEFEFE8080808059
:102E3000F0B5CE46474680B50F2A0ED80500561E7F
:102E4000002A06D00023CC5C1A00EC5401339642D1
:102E5000F9D1C0BCB946B046F0BD03000B4388466B
:102E60009B0734D110261700B1460C000300103F19
:102E70003F093F01C519A94466685E60A6689E6067
:102E8000E668DE60266810341E601E001033AE4215
:102E9000F2D1CF1939000F230C2610318C46134084
:102EA000164217D04446043B9B089B00FF1814377A
:102EB000061B0C688D1904312C60B942F9D16146AA
:102EC000043359184B441D0003231A40B7E705008B
:102ED000561EB7E74D461A00B1E7C046F8B5C046E2
:102EE0005FF800F0CD0300205FF800F0E50100205E
:102EF0005FF800F0210300205FF800F07D01002062
:102F00002526001099250010CD250010B9260010A7
:102F1000052600101D2500104D2600100925001063
:102F2000F5160010512600107D1A001069250010BA
:102F300039260010E9250010D5150010FD150010E8
:042F40005D0200101E
:102F440018000000181800000018000000181800ED
:102F54001800100018181800642F001008FF010052
:102F640022A801704118017022B80160450801606F
:102F740053797374656D20636C6F636B206F662087
:102F84002575206B487A2063616E6E6F74206265CC
:102F94002065786163746C7920616368696576651E
:102FA400640000000A2A2A2A2050414E4943202A5C
:102FB4002A2A0A000A000000486172647761726577
:102FC40020616C61726D20256420616C726561649E
:102FD4007920636C61696D65640000004861726406
:102FE400206173736572740052656C65617365006A
:102FF400626F6F74325F77323571303830000000A1
:10300400322E322E312D646576656C6F70000000AF
:103014007069636F320000007069636F5F73656C81
:103024006563746F720000004D617920203720328F
:103034003032360000001808000018180008001884
:1030440000180018001800005430001004FF01009C
:1030540021622311001442A421100010690F0010F2
:103064009D0E0010F90E001006005250D3F0754268
:10307400EC2F001006005250E182887FF42F0010DC
:1030840006005250ABB36053043000100600525097
:10309400BBFF3CB61430001006005250861C0302DD
:1030A4001C300010060052505422A29D2C300010F7
:1030B40005005250DE65F468C83400100D0A0000A3
:1030C4006C30001078300010843000109030001004
:0C30D4009C300010A8300010B430001038
:1030E0004FF050412DE9F0410027044616461D4699
:1030F000D1F8008008E0C1E88F7F8CF3108830465B
:10310000294600F0B9F9E8B92168EFF3108C72B6DE
:10311000D1E8CF2F0123002AFAD1C1E8423F002A8B
:10312000F6D1BFF35F8F94F904302168002BE2DA07
:10313000002384F80480C1E88F3F8CF310880120BD
:10314000BDE8F0810020BDE8F08100BF30B5046823
:10315000EFF3108C72B6D4E8CFEF0125BEF1000F6B
:10316000F9D1C4E84E5FBEF1000FF4D1BFF35F8F19
:1031700090F904400568002C10DB0021C5E88F1F82
:103180008CF310884FF0504595F90050A54201D1BD
:10319000084630BDBDE83040FFF7A2BF4FF05042B7
:1031A000126800230271C5E88F3F8CF3108801205C
:1031B00030BD00BF0368EFF3108272B6D3E8CFCF03
:1031C0000121BCF1000FF9D1C3E84C1FBCF1000F85
:1031D000F4D1BFF35F8F4FF0FF0C0023016880F83C
:1031E00004C0C1E88F3F82F3108840BF704700BF22
:1031F00010B40A4C23786BB9094BC3F1804103F535
:10320000807001F56021CA5843F8042F8342FAD137
:10321000012323705DF8044B704700BF14080020A1
:10322000AC060020004B1847B1060020034B1A6A79
:1032300002609A6A42605B6A8360704700000D40DA
:1032400008B500234021DB8A44F2464098470068D5
:1032500008BD00BF10B5044600F006F9084B204633
:103260005A68E2609A682261DA6862611A69A2614A
:103270005A69E2619B692362BDE81040FFF7D6BF3F
:103280000000044010B50446FFF7DAFF1CB10088C7
:10329000C0F3033010BD0A2010BD00BF10B50446B6
:1032A0000120FFF7EFFF38B92268074B1A62626806
:1032B0009A62A2685A6210BD4FF480514AF202022B
:1032C000014BD9621A6310BD00000D40C168074A66
:1032D0005160016991604169D16081691161C16981
:1032E0005161036A9361FFF7D9BF00BF000004403A
:1032F0002DE9F0434318B3F5800F04460D468BB01B
:1033000049D80023DB8A002242E800F2560254BF6B
:103310001021042144F24960984700238146DB8A4A
:10332000002242E800F2500254BF1021042145F669
:103330004500984700238046DB8A002242E800F2DD
:10334000510254BF1021042144F2525098470023E7
:103350000746DB8A002242E800F2520254BF1021E5
:10336000042144F2463098470646FFF741FF01A882
:10337000FFF770FFC847C047D8234FF48032294673
:103380002046B847B047FFF74DFF01A8FFF79EFF63
:103390000BB0BDE8F08300F073F8B2E72DE9F04719
:1033A0008318B3F5800F0446154688468AB047D87F
:1033B0000023DB8A002242E800F2560254BF1021AB
:1033C000042144F24960984700238246DB8A0022A8
:1033D00042E800F2500254BF1021042145F6450096
:1033E000984700238146DB8A002242E800F251021E
:1033F00054BF1021042145F252009847002307468C
:10340000DB8A002242E800F2520254BF102104215C
:1034100044F2463098470646FFF7EAFE01A8FFF758
:1034200019FFD047C8472A4641462046B847B0470B
:10343000FFF7F8FE01A8FFF749FF0AB0BDE8F087E3
:1034400000F01EF8B4E700BF0144884206D2002312
:1034500002F1C052835408308142FBD8BFF34F8F32
:10346000BFF36F8F704700BF01224FF480410148C6
:10347000FFF7EABF00C0FF035FF800F0791E0010FD
:103480005FF800F06D250010100000000000000043
:10349000000000000000000000000000000000002C
:1034A000E804002000000000000000000000000010
:0434B0000000000018
:1034B400D3DEFFFFFE010000FF01000084CCFFFF0C
:0434C400793512AB99
:040000051000014D99
:00000001FF
