:020000041000EA
:10000000002008205D0100101B0100101D010010E0
:100010001101001011010010110100101101001058
:100020001901001019010010190100101F01001022
:10003000110100101901001021010010230100100E
:100040001101001011010010110100101101001028
:100050001101001011010010110100101101001018
:100060001101001011010010110100101101001008
:1000700011010010110100101101001011010010F8
:1000800011010010110100101101001011010010E8
:1000900011010010110100101101001011010010D8
:1000A00011010010110100101101001011010010C8
:1000B00011010010110100101101001011010010B8
:1000C00011010010110100101101001011010010A8
:1000D0001101001011010010110100101101001098
:1000E0001101001011010010110100101101001088
:1000F0001101001011010010110100101101001078
:100100001101001011010010110100101101001067
:10011000EFF30580103800BE00BE00BE00BE00BE7A
:1001200000BE00BEF2EB8871F05100100C520010BE
:10013000A001001090A31AE7D3DEFFFF42012110B7
:10014000FF010000D0560000793512AB4FF00000DF
:100150001E49086006C881F3088810474FF05040D8
:10016000006810B14FF00000F2E70DA40ECC00299A
:1001700002D000F012F8F9E71549164A002000E015
:1001800001C19142FCD11449884714498847144958
:10019000884700BEFDE701C901C29A42FBD3704700
:1001A0000C520010100100200C070020085800100D
:1001B0000000082000000820085800100010082047
:1001C00000100820000000007047000008ED00E06B
:1001D0000C07002068A10420D5470010CD1D001099
:1001E000CD470010F8B5C0460448054B10B5834212
:1001F00003D0044B002B00D0984710BD0C07002003
:100200000C0700200000000006480749091A8B105F
:10021000C90FC91810B5491003D0044B002B00D0EA
:10022000984710BD0C0700200C07002000000000BC
:1002300010B5074C2378002B09D1FFF7D5FF054BEC
:10024000002B02D00448AFF300800123237010BDBF
:100250009008002000000000704F0010054B10B502
:10026000002B03D004490548AFF30080FFF7CCFF13
:1002700010BDC0460000000094080020704F001020
:10028000184B1B6863B301204FF0A04210B41968EB
:1002900000FA01F4C2F80C445C681A7A00FA02F21F
:1002A00022424FF0010218BF987293F808C05868B4
:1002B00002FA0CF202435A601A7A82F001021A72B0
:1002C0005A7A52B14FF48072187A890103EB4023B5
:1002D00001F1A0410C334B60CA615DF8044B7047DB
:1002E000704700BFB40800200346194A00698C46D5
:1002F000904203D15A69B2F5405F01D000207047A7
:100300009A68013AB2F5001FF8D21A6A62B111492F
:10031000114811448142F1D84FF47A71B2FBF1F0E7
:1003200001FB1022002AE9D10C4A92E803008CE874
:10033000030000F16040B0F5022FDFD81A69914246
:10034000DCD39B681A4491422CBF002001207047E7
:1003500000000210800F05FD80B2E60E0030021092
:100360000022002380B586B004A90446CDE9042309
:10037000FFF7BAFF10B9014604F0B6F8256ADDE9C7
:100380000476A5B91D4D052003F062F8A8421BD0E4
:100390004FF47A70B5FBF0F503AB284602AA01A929
:1003A00003F01EF920BB2946154803F0E7F9154B69
:1003B000154A2B44934207D84FF47A72B5FBF2F3F7
:1003C00002FB1353002BDED072B64FF0E023002265
:1003D0000E491A615A619A61D4E9043213448B6060
:1003E000BFF34F8FBFF36F8F87F30888B047FEE7E7
:1003F0000198DDE9021203F031F8E5E780D1F00859
:10040000704F0010800F05FD80B2E60E00ED00E099
:100410002DE980480220ADF21C7D03F0B1FA0220E4
:100420004FF0000343EC44000022012103F084FA62
:10043000052003F0A5FA05234FF0010242EC4430F9
:1004400042EC403003230022C449C54805AC01F00A
:10045000A1FE4FF480720021204604F05DFC4FF0B5
:1004600050435B685B070AD54FF480722046BD4954
:1004700004F0EEFCBC4B22689A4201F00D83BB4CA9
:10048000BB4BBC4D1C6004F0E9FA1F211A2003F09D
:1004900035FA00221A20114603F04EFA00211A20E4
:1004A00003F05EFA2B68B44F03F470433B60AB6813
:1004B000B24A83F08073B24983F009031340BB60F2
:1004C0000120296104F0E2FA03464FF001084FF4DD
:1004D000807EAC4ADFF8C4929E0106F1A04602EA93
:1004E000433244F80C39DFF8B8C2C6F8009042F441
:1004F000C00208FA03F9A44B42F0450273600A20D7
:10050000C6F808E0A1493261CCF8049403F092FAED
:1005100041460A2003F078FA00264FF400230D220A
:10052000242104F22440C4F81834C4F81C6484F86C
:10053000206401F00FFD04F2BC4001F063FD04F003
:100540008DFA1F211D2003F0D9F9324631461D20B6
:1005500003F0F2F931461D2003F002FA052348ECBE
:1005600040300420314608262B68894A83F44053E2
:1005700003F470433B6010602B68DF05FCD56B68AB
:10058000013E11FA83F1F6D1C1F3CF01C1EB0111A4
:10059000804A8B01A2FB03129B1A02EB5303DFF884
:1005A00004A2DB0A4033AAF8FE3626612675A6753A
:1005B00004F054FA1F211A2003F0A0F93246314604
:1005C0001A2003F0B9F931461A2003F0C9F92B6853
:1005D000694803F470430360AB68684983F0807333
:1005E000674E83F009030B40624A83602E611368F3
:1005F000D905FCD59368DB0504D45E4BDA689A68AC
:10060000D705FBD508204FF48072E36860499B0151
:1006100008605D4903F1A0435960DA610123A146F6
:1006200063754FF050435E6803F07EFEC6F38004AE
:1006300084F00104034606F00406E4B2002900F049
:1006400061854FF47A72002304F05EFC9AF8F93663
:100650009AF8E426A34200F09B84CAF804078AF8BB
:10066000F946012A00F0E28003F05EFE034600290D
:1006700000F0B3854FF47A72002304F045FCDAF8F9
:100680000837C31AC72B40F2CB80B9F81C34172B9C
:1006900000F2C68001214FF0A04400260825D9F8B9
:1006A0000C303D4A99409B01CAF8080789F815604B
:1006B00015601A19C4F86414D36813F08063FBD171
:1006C0001D462C4A1368D805FCD59368D90504D477
:1006D000284BDA689A68D205FBD57820002103F010
:1006E000C5FC04F0BBF91F211D2003F007F900220F
:1006F0001D20114603F020F900211D2003F030F9E0
:1007000005234FF0010242EC403008260421194C29
:10071000194A236883F4405303F47043136002F5CD
:10072000805211602368DF05FCD56368013E15FA2D
:1007300083F5F6D1C5F3CF03164AC3EB03139B0130
:10074000A2FB03129B1A02EB5303DB0A4033AAF805
:10075000FE36C9F8106089F8146025E000002050CA
:10076000B8080020000022104D504832C408002074
:10077000B408002000000A4000100A400F00000FDB
:1007800000E70300FDFF01FCD008002081020010FB
:1007900000200A400101100000300A400C000A400D
:1007A00000200050B898042089F8166004F056F92B
:1007B0001F211A2003F0A2F8324631461A2003F016
:1007C000BBF831461A2003F0CBF823685D4803F4E8
:1007D00070430360A3685C4983F080735B4D83F0D2
:1007E00009030B405A4A836025611368DE05FCD576
:1007F0009368DD0504D4564BDA689A68D405FBD5B6
:1008000008244FF480710122D9F80C3051489B0123
:100810000460514803F1A0435860D96189F815205C
:100820009AF8E436023B012B40F2CB81D9F8105004
:10083000002D00F0C1812B460121DB43D9F81020A7
:100840000B40994022EA010209EB4323C9F810202A
:1008500003F1160503F2162747F6FF7635F8021F57
:10086000D9F81834BAF8FE26C3EB012003EBA01325
:10087000A1EB232102FB01F1C9F81834B9F81C34AB
:10088000B9F81E240912012B81EAE17038BF012357
:10089000A0EBE170042A38BF0422B0428446A8BF0E
:1008A000B446013B9BB21FFA8CFC043A92B26345FA
:1008B00038BF63460024624538BF624663F30F04C5
:1008C000A9F81E2462F31F44C3EB0312B2F5617F43
:1008D000A9F81C3480F21C84082900F32F84083105
:1008E000C0F2368499F820140A46172B94BF0023CF
:1008F00001231A48CAF8F2468AF8F0268AF8F63632
:1009000001F03EFB09F59224144801F06BFB00282E
:1009100000F09381114801F06BFB0228014600F0C2
:1009200009830023A4F8003784F81C370C4801F031
:1009300089FB831E032BE7D8DFE813F0D20198016F
:100940006101140000100A400F00000F00E70300CF
:1009500000000A4000200A40D0080020DC0C0020E3
:10096000740D0020804601204FF0A042002608258B
:10097000D9F80C30B34C9901984089F8156025607E
:10098000C2F864048A18D3685B01FCD4AE4A1368C9
:10099000DF05FCD59368DE0504D4AB4BDA689A68B2
:1009A000D505FBD599F8D0355BB1D9F8F425D9F840
:1009B000D436D40700F1E184D9F8E425934200F05D
:1009C000D0860326002508244FF0A04301F1A04261
:1009D0009C498AF8E46689F815500C60C3F86404F1
:1009E000D3685B01FCD4984A1368DF05FCD5936893
:1009F000DE0504D4944BDA689A68D505FBD500234C
:100A000005228AF8FB368AF8E52603F08DFC0346BA
:100A1000002900F06D834FF47A72002304F074FA19
:100A2000CAF810079AF8E4369A1E012A40F2C980E3
:100A3000012B40F0BC80BAF80037072B40F2B7809A
:100A40009AF81C37002B40F0B28003F06DFC0029AF
:100A500000F0D4854FF47A72002304F055FA07466B
:100A6000DAF80837FB1AC72B40F2A18001234FF0B8
:100A7000A04400260825D9F80C1072488A018B4042
:100A800089F8156022440560C4F86434D36813F013
:100A90008063FBD11D466C4A1368D805FCD593686A
:100AA000D90504D4684BDA689A68D205FBD578205A
:100AB000002103F0DBFA03F0D1FF1F211D2002F01B
:100AC0001DFF00221D20114602F036FF00211D20CF
:100AD00002F046FF05234FF0010242EC40300826A9
:100AE0000421594C594A236883F4405303F470435A
:100AF000136002F5805211602368DB05FCD5636842
:100B0000013E15FA83F5F6D1C5F3CF03504AC3EB86
:100B100003139B01A2FB03129B1A02EB5303DB0A94
:100B20004033AAF8FE36C9F81060CAF8087789F889
:100B3000146089F8166003F091FF1F211A2002F05B
:100B4000DDFE324631461A2002F0F6FE31461A200A
:100B500002F006FF23683D4803F470430360A36876
:100B60003C4983F080733C4D83F009030B40364AC7
:100B7000836025611368DC05FCD59368D80504D42F
:100B8000314BDA689A68D105FBD5082401224FF46D
:100B90008071D9F80C3031489B010460304803F172
:100BA000A0435860D96189F815208AF81C27D9F824
:100BB0001030002B7FF440AE99F81630002B40F037
:100BC0001B8303F0B1FB0346002900F096824FF42B
:100BD0007A72002304F098F9DAF80C279AF8E436D0
:100BE000821A202A40F22A81CAF80C07032B3FF60A
:100BF00018ADDFE813F01201EB00D400B0009AF852
:100C0000F836002B40F04286164801F0AFF916483E
:100C100001F008FA0023A4F8003784F81C3794F890
:100C2000F836002B7FF470AE00230E488AF8E436C5
:100C300001F0D8F900287FF46DAEBD427FF40CAE10
:100C4000F0E600BF00300A4000000A4000100A40F1
:100C5000010110000F00000F00E7030000200A4010
:100C6000D0080020DC0C0020740D00209AF8F83623
:100C7000002BC9D003238AF8E436002301214FF06A
:100C8000A040082489F81530D9F80C3099409B0110
:100C90001A18AF4B1C60C0F86414D3685C01FCD414
:100CA000AC4A1368D805FCD59368D90504D4A94B80
:100CB000DA689A68D205FBD502238AF8E536002364
:100CC0008AF8FB3603F030FB002900F0D9854FF499
:100CD0007A72002304F018F90346CAF81037A1E627
:100CE0009AF8F886B8F1000F40F08E814FF48072C8
:100CF000994985A804F0ACF8D9F8EC34D9F8CC645B
:100D00000093964B89F8E1869E42D9F8D024D9F811
:100D1000D404D9F8D8B4D9F8DC84D9F8E4E4D9F803
:100D2000E8C4D9F8F81400F0B382012389F8E13659
:100D30008B4801F01BF98B4801F074F9002209F58A
:100D40009223A3F8002783F81C2793F8F836002B8A
:100D50007FF4DAAD68E79AF8E536072B00F0758581
:100D6000DAF810179AF8FB26411AF92905D982F00A
:100D70000102CAF810078AF8FB26002A00F06E85E7
:100D80005A1E082A00F27A86DFE812F082067806F8
:100D900037073B0728072C0778062F073307DAF8B1
:100DA00014379AF8FC26C31AB32B0AD9DAF8183785
:100DB00082F001020133CAF814078AF8FC26CAF847
:100DC0001837002A00F0E183674932E0BAF8F236BA
:100DD000DFED665ADC2B28BFDC2307EE103AB8EEB5
:100DE000C77ADFED637A87EE256AB4EEE76AF1EE43
:100DF00010FAF7EE006A58BFF0EE467AF4EEE67AA3
:100E0000F1EE10FA9AF8F62676FEA76A032A00F2A7
:100E1000D687DFE802F087838B66BAF8F226172AB6
:100E200000F2EA84534BA3FB0030860600F1AD8349
:100E30005149524801F030FA9AF8E436022B7FF417
:100E4000F0ABDAF81837052B7FF6EBAB4FF4807276
:100E5000002185A803F060FF4FF48072484985A8FF
:100E600003F0F6FF474B859A9A4203D1869B012BEC
:100E700000F0FB8401234FF0A04003270026082543
:100E8000D9F80C10324C8A018B408AF8E47689F844
:100E9000156002442560C0F86434D3685C01FCD45A
:100EA0002C4A1368D805FCD59368D90504D4294B7E
:100EB000DA689A68D205FBD5002309228AF8FB3646
:100EC0008AF8E52603F030FA0346002900F0A783EC
:100ED0004FF47A72002304F017F8CAF81007FFF7EE
:100EE000A0BB16EE901A284801F0F4F9C0F30721D0
:100EF0008DF810008DF81110C0F30743BDF81020D5
:100F00008DF81230DBB21D4885A98DF81632ADF888
:100F1000142201F0C1F99AF8E4368FE716EE901A20
:100F20001148E1E716EE901A1348DDE716EE901A25
:100F30001648D9E74FF6FF7009F59222B2F800374C
:100F400083423FF4F3AC0133A2F80037EEE400BF74
:100F500000300A4000000A40840D00204150483211
:100F6000DC0C0020740D00206C50001000005C436D
:100F70000AD7A33DD34D621070500010B80800206E
:100F8000000022104D50483264500010685000108C
:100F9000DAF80437C01A18287FF663AB002E40F049
:100FA00017819AF8FA36002B7FF45BAB0123032AF2
:100FB0008AF8FA367FF455AB4FF0A0400825D9F8EF
:100FC0000C20A8499340920189F8156002440D60F5
:100FD000C0F86434D3685E01FCD4A34B1A68D5050D
:100FE000FCD5A14B00E0DA689A68D405FBD59F498F
:100FF0009F4801F051F90A2003F0A4F800210122D2
:10100000084603F0F3F9FEE799F8D0351E46002BA9
:1010100000F0A780D9F8F425D9F8D436D2074CBF10
:10102000D9F8F825D9F8E425934280F09A8099F808
:10103000D115002900F01E8203F58071B1F5802FD3
:1010400000F28F808A42C0F08C808A484FF4807210
:101050001844894903F0FCFED9F8D43603F58073AF
:10106000C9F8D436854800F0DDFF4DE4D9F8DC46F8
:10107000002C40F07F84D9F8E415814800F02EFF61
:10108000D9F8E8350546984200F022850723082064
:1010900089F8E13601234FF0A04603254FF0000CFC
:1010A0000827D9F80C106F4C8A018B4089F815C0BD
:1010B00032442760C6F864348AF8E456D3685B018A
:1010C000FCD4694A1368DF05FCD59368DE0504D4B7
:1010D000654BDA689A68D505FBD500238AF8E506E2
:1010E0008AF8FB3603F020F9034600297FF493AC1D
:1010F000644AA2FB0330800992E4624AA2FB0330F7
:10110000800969E55F4AA2FB03308009FFF79EBAB8
:101110005D4EA6FB02C2B1EB521F4FEA521C62DDCC
:101120000122114689F82024B0F57A6F03DAB3F56D
:10113000527FC0F0B6850323FFF7DBBB0122B0F579
:101140007A6F89F8202409DB03231146FFF7D1BB0E
:101150000022B0F57A6F89F82024F5DA1146FFF7FE
:10116000C4BB0223002289F8E136484B985C032374
:101170008AF8E436002301214FF0A044082589F8BD
:101180001530D9F80C3099409B011A19354B1D6068
:10119000C4F86414D3685D01FCD4334A1368DC05D9
:1011A000FCD59368D90504D42F4BDA689A68D20528
:1011B000FBD500238AF8E5068AF8FB3603F0B4F87D
:1011C0004FF47A7200297FF484ADB0FBF2F384E52A
:1011D00000238AF8FA36FFF744BA2A4AA2FB033002
:1011E0008009FFF74CBACCF1000C6145C0F2C38115
:1011F00099F820140A4697E701234FF0A0400327EF
:1012000000260825D9F80C10164C8A018B408AF864
:10121000E47689F8156002442560C0F86434D36828
:101220005801FCD4104A1368D905FCD59368DB0536
:1012300004D40D4BDA689A68D705FBD50023012248
:101240008AF8FB368AF8E52603F06EF80346002993
:1012500000F096814FF47A72002303F055FECAF82D
:101260001007AEE400300A4000000A407050001041
:10127000B80800209A9F0020840D0020740D0020E3
:1012800000000210D34D62101F85EB515850001022
:1012900003F10C53A3F58123A3F2F5539A427FF493
:1012A00044AD01287FF441ADBBF5807F7FF43DADB7
:1012B000C34A96457FF439ADBCF5405F7FF435AD48
:1012C00008F1FF32B2F5001FBFF42FAD5FFA88F2CC
:1012D000002A7FF42AAD009B012B3FF626AD71B1A9
:1012E000B848B94A084490423FF61FAD4FF47A70AF
:1012F000B1FBF0F200FB121100297FF416AD4FF4A0
:1013000040514FF480724FF0010B8C91AF49B048BF
:10131000859101F10C51A1F58121A1F2F551869140
:10132000A749CDE987B28B9185A903F091FD009B78
:1013300013EA0B0340F0FC84B8F5802F8CBF4FF00C
:1013400000084FF0010889F8D0B5C9F8D436C9F8BB
:10135000D836C9F8DC3689F8E03689F8D1854FF4FB
:101360008053FF219B4A013B02F8011BFBD1012363
:101370008AF8F8368AF8E43674E6D9F8F825934204
:101380007FF41FAB99F8D135002B3FF46FAE99F87D
:10139000E036002B00F06884002401F0BDFC4FF41F
:1013A000004200218C4803F0B7FC40F204520021B7
:1013B00085A803F0B1FC4FF40042874985A801F0ED
:1013C000ADFCD9F8F425854BD2074CBFD9F8FC25E4
:1013D000D9F8E425859385A813448693879401F072
:1013E0009BFFA04242DBFF214FF480527948C9F8AD
:1013F000DC46C9F8D84603F08FFCD9F8E4752146DD
:10140000744D47B3C1F58054BC4228BF3C462944C3
:101410008B9185A821448A958C9101F0EFFE0128DB
:10142000064621D8D9F8DC168B9B6A189B1A9C4279
:101430001AD12144B1F5805FA7EB0407C9F8DC1687
:1014400000F0DB82002FDDD10C46002940F0318412
:10145000002E7FF410AE85A8CDE98A558C9501F059
:10146000CDFE01283FF407AE4FF00608072089F8AB
:10147000E1860FE64FF4807BDFF87C81009508F26F
:101480001623019445465C469B46D9F8DC06C0F518
:101490008058A04528BFA04629464246584403F03C
:1014A000D7FCD9F8F435D9F8D426DB07D9F8DC060F
:1014B0004CBFD9F8F835D9F8E435424440449A4253
:1014C0004544A4EB0804C9F8DC06C9F8D42600F2A8
:1014D0009B80002CDBD1B0F5805FA346DDE9005492
:1014E0007FF4C0AD01224FF0A0414FF0080CD9F8B5
:1014F0000C303B489A409B0189F815B0C0F800C0F9
:10150000C1F864245A18D3685801FCD4354A1368CA
:10151000D905FCD59368DB0504D4324BDA689A68A8
:10152000D005FBD5D9F8DC16B1F5805F7CD02E480C
:1015300000F01CFD2D4800F075FD00239AF8F826F8
:10154000AAF8003716468AF81C3702B34FF4002277
:10155000CAF8F036C9F81C3489F82034CAF8F336D2
:10156000C9F8182499F8E126023AD2B2062A7FF681
:10157000FCAD0420FBE50022114689F82024D3E5C8
:101580001B4AA2FB0330800969E61A4951E4002393
:101590004FF40022CAF8F036C9F818248AF8E43665
:1015A000C9F81C3489F82034CAF8F336002E40F00C
:1015B00093809AF8F836002B3FF4BAABD2E700BF1D
:1015C00000000210800F05FD80B2E60E4150483247
:1015D0008C0E00209A0F00209A1F00209A9F002056
:1015E00000300A4000000A40DC0C0020740D00208E
:1015F000D34D621060500010840D0020BC4AA2FB45
:1016000000239F09FFF72CBA0223DDE9005489F873
:10161000E1369AF8F836002B3FF48AABA2E7B44AD9
:10162000A2FB0330800958E499F8E036002B00F063
:101630005281D9F8D886EFF3108B72B64FF48051EF
:1016400008F5003003F068FC8BF3108808F5FC38CF
:1016500008F58F78DFF8A0B2A8EB09080094EFF343
:10166000108472B64FF48072594608EB0B0003F0F9
:1016700047FC84F310889F4B0BF5807B5B45EED1D4
:101680004FF00008D9F8D8364FF4805203F5805354
:10169000FF219948C9F8D836009CC9F8DC8603F0C8
:1016A0003BFB964800F062FC954800F0BBFC9AF8C2
:1016B000F836AAF800878AF81C87002B3FF467AF3A
:1016C0004FF40023CAF8F086C9F81C8489F82084F6
:1016D000CAF8F386C9F818344FF00008C9F810802A
:1016E00089F8148089F8168003F0B8F91F211A20B0
:1016F00002F004F9424641461A2002F01DF9414623
:101700001A2002F02DF97F4A7F4913687F4803F4BD
:1017100070430B60936883F0807383F00903034088
:101720008B607B4B13611368D905FCD59368DB058F
:1017300004D4744BDA689A68D605FBD54FF0080CD0
:101740004FF480710122D9F80C3072489B01C0F827
:1017500000C0714803F1A0435860D96189F8152091
:1017600080E499F8D135002B3FF480AC99F8E0364D
:10177000002B00F05082D9F8E43503F6FF731B0B01
:101780003FF479AC00252E461B03DFF8A0810193BE
:1017900006F5003BEFF3108472B64FF480515846C3
:1017A00003F0BAFB84F31088D9F8E425951BB5F54E
:1017B000805F28BF4FF48055964215D0002408F56D
:1017C0001647E2370096EFF3108672B64FF4807238
:1017D000391904EB0B0003F093FB86F3108804F532
:1017E0008074A542EFD8009E019B06F58056B34257
:1017F00008F58058CCD13EE4DC2A28BFDC2207EE75
:10180000902ADFED465AF8EEE77ADFED456A87EE7B
:10181000A56AB4EEE66AF1EE10FAB7EE007A54BFAC
:10182000F0EE467AF0EE667AF4EEC77AF1EE10FA50
:101830009AF8F60677FE277A17EE901A032800F238
:10184000BB82DFE800F095939175294BA3FB003034
:1018500085063FF5EDAA3349FFF7EBBAADF8142240
:101860008DF8162285A9FFF7E4BA1C2185A800F09F
:1018700035FB8C9B98427FF4FDAA85A8FEF770FD8E
:101880001B4AA2FB00239B09FFF727BA03238AF810
:10189000E436002301214FF0A040082489F81530D8
:1018A000D9F80C3099409B011A181F4B1C60C0F8E6
:1018B0006414D3685F01FCD4124A1368DE05FCD5BA
:1018C0009368DD0504D40F4BDA689A68D405FBD51C
:1018D0000323FFF7F2B9EFF3108872B64FF4081044
:1018E00003F01AFB88F31088012389F8E036A0E69C
:1018F000D34D62109A1F00209A0F0020DC0C0020AC
:10190000740D002000000A4000100A400F00000F74
:1019100000E7030000200A40D008002000005C43DC
:101920000AD7A33D6450001000300A40B8080020D8
:10193000C04800F0CFFCC0F307218DF80C008DF8F3
:101940000D10C0F30743BDF80C208DF80E30DBB24C
:10195000B94885A98DF81632ADF8142200F09CFC28
:101960009AF8E436FFF76ABAB448E2E7B448E0E729
:10197000B448DEE7E3B2002B40F0A480B4F5805F0A
:1019800000F2A08099F8E036002B00F0F781D9F83A
:10199000D87607F50035EFF3108672B64FF4805114
:1019A000284603F0B9FA86F31088A74E013C24F0CC
:1019B000FF0405F58073F61B1C44EFF3108772B625
:1019C0004FF480722846711903F09AFA87F3108851
:1019D00005F58075A542F0D10023C9F8DC36D9F8A9
:1019E000D8364FF4805203F58053FF219748C9F849
:1019F000D83603F091F9FFF73EBB99F8E036002B9B
:101A000000F04281D9F8D886EFF3108472B64FF413
:101A1000805108F5003003F07FFA84F310888B4C76
:101A200008F5FC3808F58F78A8EB090804F5805B09
:101A30000095EFF3108572B64FF48072214608EBE3
:101A4000040003F05DFA85F3108804F580745C45AA
:101A5000EFD10023C9F8DC36D9F8D836FF2103F5D9
:101A600080534FF480527948009DC9F8D83603F06E
:101A700053F90021002F7FF4C5ACE5E400223021AA
:101A800013468DF814128DF815328DF81622E9E6FA
:101A9000002330221946F4E76368012B7EF4EFAC93
:101AA0001C21204600F01AFAE36998427EF4E7AC64
:101AB00020466749FEF718FC00283EF4E0AC2046BB
:101AC000FEF74EFC0423062089F8E136FFF7E2BA60
:101AD00045ACE42200214CA803F01EF9E560012585
:101AE000D9F8F4351C2123F00103A361594B20469A
:101AF0002360D9F8E4356560A360D9F8EC3523613B
:101B0000D9F8F0356361D9F80036236200F0E6F9C0
:101B1000E061EFF3108672B64FF480514FF4081075
:101B200003F0FAF986F31088EFF3108672B64FF4DB
:101B3000807221464FF4081003F0E2F986F3108812
:101B40004FF48072002185A803F0E6F84FF480720C
:101B5000414985A803F07CF94FF48072214685A89D
:101B600003F052F9D9F80C20954000284DD10223FA
:101B700008248AF8E4364FF0A04389F81500374866
:101B80009201046002F1A042C3F86454D3685C017E
:101B9000FCD4334A1368D805FCD59368D90504D41E
:101BA0002F4BDA689A68D205FBD500238AF8E53610
:101BB0008AF8FC36CAF8183702F0B6FB034641B182
:101BC0004FF47A72002303F09FF9CAF81407FEF766
:101BD00029BF244AA2FB03308009F6E70022122322
:101BE00030214EE7122226214BE71C22002113460A
:101BF00047E718221346114643E71C2200232221FF
:101C00003FE70022182320213BE70823092089F819
:101C1000E136FFF73FBAEFF3108472B64FF480510C
:101C20004FF4081003F078F984F31088012389F841
:101C3000E036A0E564500010B8080020685000109D
:101C40006C500010705000109A0FFE1F9A0F002069
:101C5000A09F04204D5048320000221000300A405E
:101C600000000A40D34D6210EFF3108472B64FF4B7
:101C700080514FF4081003F04FF984F310880123CA
:101C800089F8E036FFF788BBEFF3108472B64FF4A3
:101C9000081003F041F984F31088012389F8E03635
:101CA000B0E6B3F5D27F28BF0223BEF422AEFEF722
:101CB0001CBE11F0FF077FF405AFB1F5805F3FF662
:101CC00001AF99F8E036002B67D0D9F8D83603F584
:101CD0000038EFF3108B72B64FF48051404603F09A
:101CE0001BF98BF31088EFF3108B72B64FF48072F0
:101CF000E91907EB080003F003F98BF3108807F5E7
:101D00008077A742EFD300234FF48052FF21C9F818
:101D1000DC36D9F8D8361344C9F8D8362A4B013AFC
:101D200003F8011BFBD1002E7FF4A5A9FFF793BB9D
:101D3000D9F8F835002B3EF4F8AF13F0FF027EF42B
:101D4000F4AFD9F8FC1500293EF4EFAF8B42FEF456
:101D5000ECAFB3F5802F94BF0123002389F8D0B5F1
:101D6000C9F8D426C9F8D826C9F8DC2689F8E026AF
:101D700089F8D1357FF6F3AAFEF7D7BFEFF31085C8
:101D800072B64FF480514FF4081003F0C5F885F394
:101D90001088012389F8E036F9E5EFF3108872B670
:101DA0004FF480514FF4081003F0B6F888F3108810
:101DB000012389F8E03688E74FF00002C8E54FF0CC
:101DC00000020023FFF79FB89A0F002008B53F4E8E
:101DD000D6E8AF4F14F0010401D0FEF719FB3046EE
:101DE00002F088FF0028F8D0394D3A4B28462146AA
:101DF00040F20C4240F80C3B6C602C7202F08CFFFD
:101E00004FF0FF3321464FF4806205F118002C613A
:101E1000EB602C756C75AC7502F07EFF4FF40023FF
:101E20002146982205F22440C5F81C44C5F82044F8
:101E3000C5F8183402F070FF042321464FF48A726B
:101E400005F2BC4085F8B83402F066FF42F2FF03A9
:101E500021464FF4827205F2CC40A5F8BD3402F061
:101E60005BFF21461C4A05F5BA6002F055FF05F5F7
:101E700016404FF480222146E23002F04DFF4FF42D
:101E8000807305F592253046A5F8E446C5F8E84686
:101E9000C5F8EC46C5F8F046C5F8F446C5F8F8466E
:101EA00085F8FC46C5F8FE36C5F80447C5F808476E
:101EB000C5F80C47C5F81047C5F81447C5F81847CA
:101EC00085F81C4702F024FF87E700BFB008002018
:101ED000B80800200000205014910400A9B34FF06E
:101EE000FF321B4B114400EB020C08441CF8011F8D
:101EF000514041F300021A4082EA510242F30001CC
:101F0000194081EA520141F300021A4082EA51026B
:101F100042F30001194081EA520141F300021A40E4
:101F200082EA510242F30001194081EA520141F371
:101F300000021A4082EA510242F30001194084452E
:101F400081EA5202D2D1D04370470846704700BFA1
:101F50002083B8ED00234FF0040CC0E92212C0E941
:101F60002033C0F89030A0F894C0704700230422BA
:101F7000C0E92033C0F89030A0F89420704700BF2B
:101F800090F89520D0F890308A4227D0D0F8882059
:101F900010B49A4280F895101ED9D0F88C209A423D
:101FA0008CBF0022012290F894301BB10222013B29
:101FB00080F89430D0F88410D0F880404B1C03F0A7
:101FC0007F039C421CBF4254C0F8843000235DF85C
:101FD000044BC0F8903070470222E4E70133C0F8A8
:101FE00090307047D0E92020101A18BF01207047A8
:101FF0000246D0F88030C05C013303F07F03C2F8A2
:102000008030704700214FF47F4C2023C160A0F83E
:1020100000C083708180817101814FF48272103021
:1020200002F07ABE00214FF47F4C2023A0F800C0BC
:1020300083708180817101814FF48272103002F0CF
:102040006BBE00BF0346007810B5B0B1012813D1B4
:1020500002292BD0B3F808C003EB0C0E9EF8102019
:1020600011438EF810109A790132D2B2082A9A716F
:1020700020D049008EF8101010BD5A78CA40D207FF
:1020800014D5012926D002292ED011B39A78002A1E
:10209000F2D1002101244FF4827203F110001C7070
:1020A0001981997102F038FE204610BD03221046B6
:1020B0001A7010BD00220CF1010C1FFA8CFCBCF54B
:1020C000827FA3F808C09A7120D09C448CF810201D
:1020D00010BD02219A785970002ADAD0013AD2B2A2
:1020E0009A70002AC8D1D4E79A88013292B2B2F528
:1020F000FA7F9A8005D3DA681AB1052210461A7061
:1021000010BD42F20702A3F8012010BD4FF0FF31CD
:102110001F4A03F10F0C03F20F1E1CF8010F484079
:1021200040F30001114081EA500141F300001040EA
:1021300080EA510040F30001114081EA500141F36F
:102140000000104080EA510040F30001114081EA94
:10215000500141F30000104080EA510040F30001BB
:10216000114081EA500141F300001040E64580EA49
:102170005101D2D1C943D3F81001DA6800BA8842BC
:1021800014BF042002200132DA60187010BD00BFB5
:102190002083B8EDF0B50C46054689B03949C5E94C
:1021A000004220461F4602F081FC4FF48033064671
:1021B0000493BB02344A03F4F84343F000530692FD
:1021C0000793F21CF30143EA023323F0C0430520D6
:1021D000059301F03DF907EE100A9FED2C6AB8EE69
:1021E000477ADFED2B6AC7EE067A77EEA67ABCEE69
:1021F000E77A17EE103A9AB2002A41D007EE102A79
:10220000B8EE477ADFED236A77EEC77A67EEA67AF3
:10221000FCEEE77ACDED037A9DF80C301B02012429
:10222000296843EA024301F12F4101F56001090DDC
:1022300006313846C9B2049301F060FB00943A4677
:10224000D5E90001234602F0BBFCD5E90001324686
:1022500004AB02F0FBFCD5E900130A6804FA03F3AF
:1022600013430B6068682C7200F1100304FA03F347
:102270004A681A40FCD1043041F8202009B0F0BD72
:102280001346CCE774500010000006700024F44A96
:102290000000003B00008043037ACBB1012210B460
:1022A0000B7891F801C0446889781B0243EA0C431B
:1022B0000B4304F1100C016802FA0CF218024B688F
:1022C0001342FCD1043441F824005DF8044B7047FC
:1022D000704700BF05EE101ADFED205AB4EEE55A44
:1022E000F1EE10FAB7EE007A58BFF0EE455A0178D9
:1022F000F4EEC75A06EE101A83784178F1EE10FA20
:1023000006EE901A07EE903AB8EEC66A37FE257AC6
:1023100026EE076AF8EEE66AF8EEE77A66EE876A76
:1023200067EE877ABCEEC67A84B08DED007ABCEE9B
:10233000E67A00228DED017AFCEEE77A9DF8003016
:1023400063F307029DF8043063F30F2217EE903A0F
:1023500063F31742104604B0704700BF000000004E
:102360002DE9F0474FEA124C1FFA82F9002900F0DC
:10237000B9800D4641F2B0585C4E45452C4628BF09
:1023800044465FEA241E04F00F014CD000F1100215
:102390004FEA0E1702EB0E1E12F8103C12F80FACAB
:1023A0004B440AEB030912F80EAC4B44CA4412F832
:1023B0000D9C5344D14412F80CAC4B44CA4412F85F
:1023C0000B9C5344D14412F80AAC4B44CA4412F853
:1023D000099C5344D14412F808AC4B44CA4412F847
:1023E000079C5344D14412F806AC4B44CA4412F83B
:1023F000059C5344D14412F804AC4B44CA4412F82F
:10240000039C5344D14412F802AC4B44CA4412F822
:10241000019C5344D14410324B4496459C44BBD15B
:102420003844002949D0037801299944CC4443D049
:10243000437802299944CC443ED0837803299944B7
:10244000CC4439D0C37804299944CC4434D003799E
:1024500005299944CC442FD0437906299944CC448A
:102460002AD0837907299944CC4425D0C3790829F7
:102470009944CC4420D0037A09299944CC441BD0F8
:10248000437A0A299944CC4416D0837A0B2999447B
:10249000CC4411D0C37A0C299944CC440CD0037B92
:1024A0000D299944CC4407D0437B0E299944CC4450
:1024B00002D0837B9944CC440844A6FB0932A6FB96
:1024C0000C13D20BDB0BC2EB0237C3EB033102EB75
:1024D000071203EB01132D1BA9EB0209ACEB030C54
:1024E0007FF44BAF49EA0C40BDE8F087718007806C
:1024F000D1B100B586464B1E0C4910460EF1FF3295
:102500009E4412F8013F584000F00F0351F8233069
:10251000964583EA101303F00F0C51F82C0080EA63
:102520001310EED15DF804FB104670478450001084
:1025300070B515460E4688B020220021044602F0F0
:10254000EBFB5DB1701E421910F801CF34F81C305E
:10255000824203F1010324F81C30F5D10021638885
:10256000A288ADF804301344E288ADF80630134475
:102570002289ADF808301A446389ADF80A20134463
:10258000A289ADF80C301A44E389ADF80E2013444B
:10259000228AADF810301A44638AADF81220134431
:1025A000A28AADF814301A44E38AADF81620134419
:1025B000228BADF818301A44638BADF81A201344FF
:1025C000A28BADF81C30134421800091ADF81E3071
:1025D000B5B1711E08464A1910F8013F73B10DEBF1
:1025E0004303B3F800E000F1FF3C0EF10105ACEB52
:1025F000010C0EF1100E1D8024F81EC08242EBD19A
:1026000008B070BD2DE9F84F00234FF0070B0122F1
:102610008A46054698460F4601F11E090FE0EC6810
:10262000B94504F001034FEA54041E44EC6022D083
:1026300037F8023F03EB0801F31A28D488462C69C7
:102640005E00631E2B61002CE9D1D5E9001399428D
:1026500015D3AB6843B195F8251029B9284698479A
:1026600000284FF0010219DA85F82520B945C5F890
:1026700010B0EC60DCD16FF00200BDE8F88F4B1CAD
:102680002B600C7804F001031E446408EEE7B044AC
:1026900008F110083AF81800BDE8F88F00EA0203C4
:1026A0001E44C0F34604E1E72DE9F84F91460029A6
:1026B0003BD0012505FA01F7AF4236D904464FF069
:1026C00000084FF0070A4FF0060B06691DE0A368EB
:1026D00033B194F825201AB92046984700282CDAFF
:1026E000012384F825306D00AF42C4E9036A1ED986
:1026F0000626C4F810B0E36803F0010205FB028867
:102700006D005B08AF42E36011D9731E236196B977
:10271000D4E900239A42DAD2531C2360167806F0DB
:10272000010305FB03887608DDE74FF0000809EB9D
:102730000800BDE8F88F1E46DDE700F0010305FB49
:102740000388C0F34606CEE72DE9F04F01270526A2
:102750004FF000084FF0060904468B46BA46E3B036
:10276000056909926B1E2361002D40F0A182D4E916
:1027700000329342C0F08082A3683BB194F82520D8
:1027800022B920469847002880F2A48284F825A028
:10279000013EE5604FEA470700F07D820625C4F858
:1027A0001090E368013E03F001014FEA530307FB79
:1027B0000188E3604FEA4707D4D11A462B461546F5
:1027C000012708F2011205264FF000084FF0060914
:1027D000BA4608925A1E2261002B40F06B82D4E95F
:1027E00000329342C0F03782A3683BB194F82520B1
:1027F00022B920469847002880F26582002584F897
:1028000025A0013EE5604FEA470700F0338206232A
:10281000C4F8109005F00102013E4FEA550502FB95
:102820000788E5604FEA4707D4D108F10102042682
:102830004FF0010800274FF007094FF0060A0792F2
:102840005A1E2261002B40F03182D4E900329342BB
:10285000C0F0F881A3683BB194F8252022B9204646
:102860009847002880F228820123002584F825302B
:10287000013EC4E903594FEA48080DD00623C4F8C5
:1028800010A005F00102013E4FEA550502FB087752
:10289000E5604FEA4808D3D100231593CDE9123300
:1028A0001493CDF857303B1D46D08D4A4FF00709A1
:1028B0004FF0060A9046131D3B4426690193CDF85C
:1028C00008B0032501274FF0000B731E2361002E73
:1028D00040F0E381D4E900329342C0F0A181A368C3
:1028E0003BB194F8252022B920469847002880F271
:1028F000D681012384F82530013DC4E903694FEAFC
:10290000470700F09D810626C4F810A0E368013D4A
:1029100003F001024FEA530307FB02BBE3604FEAF7
:102920004707D2D118F8013B12AA02F803B0019B65
:102930004345C6D1DDF808B020220021584602F0F8
:10294000EBF90DF1470002460DF15A0112F8015F53
:102950003BF815308A4203F101032BF81530F5D10D
:10296000BBF8022000231546BBF804200195AA18E5
:102970001646BBF80620069632441746BBF80820D8
:1029800005973A441546BBF80A20BBF810E02A44E4
:1029900016464FF00002ABF80020BBF80C20BBF845
:1029A00012C032441746BBF80E20049502EB07090B
:1029B000CE44BBF81420F44402EB0C0A0A93019BAA
:1029C0000396ADF82C30069B0297ADF82E30059B90
:1029D000BBF81670ADF83030049BBBF81860ADF84A
:1029E0003230039BBBF81A50BBF81C80ADF8343072
:1029F000029B5744ADF8363003463E443544A84464
:102A00000AAAA2F81090A2F812E0A2F814C0A2F844
:102A100016A0178356839583A2F81E8013F8016FC2
:102A200056B132F816705D1E07F1010C2D1A1037E1
:102A300022F816C02BF817508B42EFD1DDE9073290
:102A40009B18029300F0AA8000230BF11E08CDF81A
:102A500004B04FF007099B462569002101228A46F0
:102A6000019F10E0E0681D46474500F001034FEA72
:102A700050001E44E06025D037F8021F01EB0A0326
:102A8000711A2FD49A466B1E4E002361002DE9D196
:102A9000D4E9001399421AD3A3684BB194F82510D6
:102AA00031B92046984700284FF0010280F2978004
:102AB000002084F8252047454FF00705C4F8109002
:102AC000E060D9D16FF0020063B0BDE8F08F4B1C1D
:102AD0002360087800F001031E444008EBE700BFC4
:102AE000C4500010019BB2440AF1100A33F81A20B6
:102AF000112A00F08380122A00F08C80102A40F006
:102B00008380BBF1000FDDD00DEB0B0292F8473054
:102B10004FF0040A032203932B46012600270621C7
:102B200015465A1E2261002B5FD1D4E900239A4238
:102B300045D3A36843B194F825202AB92046984785
:102B400000284FF0060152DA0123002084F82530D6
:102B500076005645C4E903093ED20623216100F000
:102B6000010206FB0277760040085645E060D8D3A4
:102B70002A461D46029B3A4402EB0B069E42A1D810
:102B800032B112AB03EB0B00039902F0C5F8B34668
:102B9000029B5B453FF661AFDDF804B0089C5846E8
:102BA000224612A9FFF7C4FC214612AB0998079AE6
:102BB0001944FFF7BDFC002063B0BDE8F08F531C43
:102BC0002360107800F0010306FB037776004008CD
:102BD0005645C4E90309C0D32A460725CAE700EAD7
:102BE00002031E44C0F3460065E71346B7E700F052
:102BF000010306FB0377C0F34600A9E70023032285
:102C00004FF0080A039387E712AB03F80B200BF190
:102C1000010BBDE700230B224FF0800A03937BE7F3
:102C20005A1C22601E78013D06F001034FEA560649
:102C300007FB03BBC4E903694FEA47077FF463AEB0
:102C400007266FE65A1C22601D7805F0010308FB79
:102C500003776D080CE65A1C22601D78013E05F0D2
:102C600001034FEA550507FB0388E5604FEA470774
:102C70007FF4CDAD0723D8E55A1C22601D78013EB4
:102C800005F001034FEA550507FB0388E5604FEAAD
:102C900047077FF483AD072392E51E4636E600F032
:102CA000010307FB03BBC0F3460625E61346E8E530
:102CB0001D4676E51346ADE500F0010308FB0377FA
:102CC000C0F34605D4E500F0010307FB0388C0F319
:102CD000460596E500F0010307FB0388C0F34605AF
:102CE00056E500BFD0E90032934210B504460CD33C
:102CF00083682BB190F8252012B99847002808DA8C
:102D00000123002084F8253010BD5A1C0260187879
:102D100010BDC0B210BD00BF704700BF10B400238B
:102D20004FF0FF34C0E90E12C0E90A4380F82530A5
:102D30005DF8044B03610364036370472DE9F84FAA
:102D40000446A56A6A1C00F0A080002D33D0013D26
:102D5000012D00F2E980236B002B00F0E880D4E91C
:102D60000D32002A00F01E81A169481CA061D35CCD
:102D70000B70A36B002B00F09281226C616B501CD6
:102D80002064595C9954D4E90F23934204BF002373
:102D90002364636B0133934208BF0022636312BF55
:102DA000A369A3696263226B013A2263E2699A42D2
:102DB000C7D8002066E0256B3DB36E1E2663002E4B
:102DC0005DD0D4E900329342C0F05481A36823B1AE
:102DD00094F82520002A00F0EC800122002384F8DA
:102DE0002520A269511CA1611370A26B002A00F07A
:102DF0005481216C481C20645354D4E90F21914222
:102E0000A369D3D100222264D0E7D4E900239A42F7
:102E1000C0F04781A368002B00F0FB8094F82520C8
:102E2000002A40F0F68020469847D4E90073002835
:102E3000BBBF01222E46C6B284F825209F4280F0F7
:102E40005281791C21603A7806EB0226994280F083
:102E500048814A1C22600D789A4280F03581531CCB
:102E60002360137805EB032585F47F4585F0FF0586
:102E7000B54259D1002326632361002EA1D1E36A14
:102E800013B10120BDE8F88FA56A2669731E23617E
:102E9000002E00F09580E268560802F00102022739
:102EA0004FF001084FF000094FF0070A4FF0060BF2
:102EB000E660E2625A1E2261002B40F0F680D4E9FF
:102EC00000239A42C0F0E080A3683BB194F825202B
:102ED00022B920469847002880F207810123002666
:102EE00084F82530013FC4E9036A4FEA48080DD051
:102EF0000623C4F810B006F00102013F4FEA56065F
:102F000002FB0899E6604FEA4808D3D1B9F1010FF6
:102F1000C4F8289000F0F780B9F1020F00F04E815C
:102F2000B9F1000F3FF447AF6FF00200AAE7204667
:102F300004F14401FFF766FB94F82520002AF3D141
:102F4000FF2852DDB0F5807F99D06FF48073C318ED
:102F50001C2BE9DCA14AA24932F81320C95C2046A7
:102F6000FFF7A2FB034604F5297123632046FFF710
:102F700049FB1D280346D7DC9A4A9B4932F81320A7
:102F80002046C95CFFF790FBA26B002A00F0068187
:102F9000E16B884200F21E81236C1B1A00D50B44A2
:102FA0006363E1E6A269D35C1370A3690133A36193
:102FB000F9E6204698470028FFF60FAFC3B210E7A6
:102FC000D4E900329342C0F0F280A368002B55D0C0
:102FD00094F82520002A51D12046984700284DDB3F
:102FE00000F00102C0F346064CE0A369C0B2591CD0
:102FF000A1611870A36B002B4FD0216C4D1C256470
:103000005854D4E90F108842A3697FF4CFAE2264EC
:10301000CCE60122002684F82520002B6CD094F801
:103020002520002A43D0012284F82520002B66D0D9
:1030300094F82520002A49D0012284F825203BB1AC
:1030400094F8252022B920469847002880F2A280D3
:10305000012385F47F4585F0FF05B54284F82530CE
:103060007FF462AF00232361D4E9003293422663E8
:10307000BFF4ACAE5A1C22601B78B2E601230022DA
:1030800084F8253007230AE7531C2360167806F0DE
:10309000010308FB0399760824E7A36986E6E26B3F
:1030A00077E6571C27601678C8E6134623E72046C4
:1030B0009847D4E900130028B3BF0122C0B206EB41
:1030C000002684F82520C1E6A368B8E72046984783
:1030D000D4E900230028B6BF0121C5B284F8251029
:1030E000BAE6A368A2E7A36897E700F0010308FB2C
:1030F0000399C0F34606F5E6012384F82530012341
:1031000084F82530A4E7012D3FF425AE00214FF4CB
:10311000C0104FF48073354A61646265A16404F1A4
:103120006202E1642065591C22F8023F8BB2B3F5BC
:103130008C7FF8D1002304F1920222F8023F013380
:10314000902BFAD12A4A2B482B49C4F8B82102F116
:103150000412C4F8C021C4F8B401C4F8BC1104F5C9
:10316000E172591C22F8023F8BB2B3F5807FF8D18F
:1031700000214FF400100B4604F2C222C4F8A4123E
:10318000C4F8A812C4F8AC0222F8023F0133202B85
:10319000FAD1E0E5C0B205EB002565E6D4E90532D9
:1031A000D31A98423FF6C0AE43426363FBE65A1C13
:1031B00022601A78560802F0010263E7204604F5FF
:1031C000297204F14401FFF7BFFA00287FF4ACAE86
:1031D000A56ABAE56FF0040054E600BF3451001050
:1031E00070510010D8500010145100109800700059
:1031F0001A011B01180119011C011D01F8B5044633
:103200008669FFF79BFD051E08DB94F82430012B2F
:1032100006D0022B10D0012D0BD101252846F8BD78
:10322000A1693046226A891BFFF79AF8012D2062B6
:103230000BD000252846F8BDA1693046226A891BBB
:10324000FFF756F9012D2062F3D194F82430012BB9
:103250003CD0022BE1D104270026D4E9003293426E
:103260004FEA16262CD3A36833B194F825201AB957
:103270002046984700284CDA84F82550013FECD1CD
:10328000236ADB43B3423AD1D4E9003293424FF090
:1032900004054FF0010610D3A36833B194F825203C
:1032A0001AB920469847002801DA84F82560013DC4
:1032B000B3D0D4E900329342EED201332360F6E773
:1032C0005A1C22601B7846EA0366D7E704270026CB
:1032D000D4E9003293424FEA062613D3A3683BB1E8
:1032E00094F8252022B9204698470028C0B20EDA6B
:1032F00084F82550013FEBD1236AB3428DD06FF0A3
:1033000003058BE75A1C22601B781E43F2E7064335
:10331000F0E746EA0066B1E738B50546FFF7E2FC9C
:1033200004462846FFF7DEFC4FF4807314FB0303CA
:103330000C490D4A01FB03F393420FD804F00F032D
:10334000082B0BD1C4F30714072C07D8830605D428
:10335000012385F8243020462B6238BD6FF002002F
:1033600038BD00BFDF7BEFBD8410420808B50520E3
:1033700000F06EF8014B186008BD00BFAC080020DB
:1033800000EB400C4FEA8C0C0CF1804C0CF5803CAF
:10339000F0B51646DCF80420051FB2F5803F38BFB3
:1033A0004FF48032EDB238BFCCF80420012D2AD979
:1033B0004FF40067254C0CF54052176054F820205C
:1033C000B2B9DCF80020012D82EA461202F0E002D8
:1033D0000CF5805632602AD94FF4006144F8203051
:1033E0004FF480330CF500521160CCF80430F0BD7E
:1033F0006769B7FBF2FE0EF1010E0EEB4E0EBEF149
:10340000030EFCD2DDE70129D2D103240CF5405292
:103410001460DCF80820D207FBD5DCF800200B4C48
:1034200082EA461202F0E0020CF580563260012278
:10343000DCF800504D4005F00305356002FA01F15B
:10344000DCF808200A42FBD0C6E700BF08A1042030
:10345000014B53F82000704708A10420584B2DE978
:10346000F0431C6C1746B4F5803F38BF4FF48032F0
:1034700083B038BF1A64032280460E46514B504D2C
:10348000DA636C6CE307FCD5EB6B4F4A83F02003E7
:1034900003F0E003D363EB6B494D83F0010303F0CA
:1034A0000303D3636C6CA407FCD54FF400624FF4A4
:1034B0008039464B464CDA63464B424663610121F4
:1034C0003346C5F840904448009700F049FF4FF458
:1034D00000616B6B07FB06F64B4538BFC5F83490AF
:1034E000384B2269B8FBF6F619633AB16369B3FB4E
:1034F000F2F3013303EB4303033BFDD23049324A7D
:103500000B6B03F0E00313630B6B83F0020303F018
:10351000030313638B6B5807FCD54FF400654FF41E
:1035200080332A4A15632D4A4B6322610A6C9A4202
:103530004FF0030238BF0B64224B2149DA634B6C16
:10354000DA07FCD5CB6B204A03F0E003D363CB6BE7
:103550001B4983F0010303F00303D3634B6C9B0708
:10356000FCD54FF480334FF40065184A6661D5638B
:103570000B64CA6C9A4238BFCB644FF40061114BA4
:10358000A26999643AB16369B3FBF2F3013303EBC7
:103590004303033BFDD24FF400604FF48031084AEF
:1035A000094D936C83F0400303F0E003AB64074BD9
:1035B000084DA5619864D16403B0BDE8F08300BFF5
:1035C0000000014000300140001001400020014097
:1035D00008A10420006CDC0200000540001BB700BD
:1035E0002DE9F04F4FF4A078994685B0CDE902124D
:1035F0005F4CDFF884A154450AD908F1FF38A4F5DF
:103600003B54B8F10F0FA4F12004F4D1002069E07D
:10361000072304F53722019403FB03F402F5D87263
:10362000B2FBF4FE86454FF0010C4FF002074FF05D
:1036300003064FF004054FF005013FD0B3F1010E32
:1036400000F094800EFB03F4B2FBF4FB58454CD021
:1036500019B303FB01F4B2FBF4FB58454FD0E5B1BD
:1036600005FB03F4B2FBF4FB584553D0AEB106FBA7
:1036700003F4B2FBF4FB584557D077B107FB03F4D2
:10368000B2FBF4FB58455BD0BCF1000F05D00CFB3E
:1036900003F4B2FBF4FB83455DD0734603FB03F4F4
:1036A000B2FBF4FE864501F1FF3105F1FF3506F16D
:1036B000FF3607F1FF370CF1FF3CBFD104FB1024AC
:1036C000002CBBD19E464A46DDF808B0DDF80C90D0
:1036D0000120284901FB08F1CBF80010C9F800309F
:1036E000C2F800E005B0BDE8F08F04FB1024002C08
:1036F000AED14A46DDF808B0DDF80C90E8E704FBEF
:103700001024002CABD14A468E46DDF808B0DDF817
:103710000C90DDE704FB1024002CA7D14A46AE46EE
:10372000DDF808B0DDF80C90D2E704FB1024002C83
:10373000A3D14A46B646DDF808B0DDF80C90C7E7DD
:1037400004FB1024002C9FD14A46BE46DDF808B089
:10375000DDF80C90BCE704FB1024002C9DD14A46F8
:10376000E646DDF808B0DDF80C90B1E7019C44E7CF
:1037700050262F00001BB70050F80C000FB400B506
:1037800083B0049C074801F04BF93CB105A92046E1
:10379000019101F001F8044801F042F9012001F023
:1037A00013F800BFA44F0010B44F0010EFF31080C7
:1037B00072B6064BD3E8CF1F01220029FAD1C3E825
:1037C000412F0029F6D1BFF35F8F7047E39F04209C
:1037D0000023034AC2E88F3F80F31088704700BF80
:1037E000E39F042070B58646EFF3108572B6124C45
:1037F000D4E8CF6F0120002EFAD1C4E8460F002E86
:10380000F6D1BFF35F8F4FF0010CC80801F007033A
:103810000CFA03F31EF800C01CEA030608D14CEAB8
:10382000030C0EF800C0C4E88F6F85F3108870BDDC
:103830001046FFF7A3FF00BFE39F0420F8B5EFF3A6
:10384000108772B61C4ED6E8CF5F0124002DFAD146
:10385000C6E8454F002DF6D1BFF35F8F9A421BD8C3
:10386000012502E00132934222D3D40810F804E08B
:1038700002F0070C05FA0CFC1EEA0C0FF2D14EEA1E
:103880000C0E00F804E010460023C6E88F3F87F3D3
:103890001088984207DBF8BD0023C6E88F3F87F306
:1038A00010884FF0FF300029F5D00698FFF766FF2B
:1038B0004FF0FF30E8E700BFE39F0420044A107890
:1038C000431CDBB2182B28BF10231370704700BFB6
:1038D000E80600204FF0E022936843F00053936025
:1038E000704700BF0021044B03F12002C3E88F1F83
:1038F00001339342FAD17047D89F042010B44FF49B
:1039000080740C4B53F8202003EB8003C00082F03E
:10391000400200F1804003F5805C02F0C00200F537
:10392000203003F54053CCF8002041601C605DF866
:10393000044B70470480034010B4084CC90041EAAE
:10394000820154F8202004EB8003514003F580539A
:1039500001F00C015DF8044B1960704704800340CE
:10396000064B402203EB800319B103F500531A60A4
:10397000704703F540531A60704700BF048003404E
:1039800030B44FF0000343EC440043EC4000052505
:103990004FF480740B4BC20053F8201003EB8000EF
:1039A00081F0400102F1804303F5203301F0C002B1
:1039B00000F5805100F540500A605D60046030BC45
:1039C000704700BF048003404FF0E0234FF0803287
:1039D000C3F80024C3F80424C3F80824C3F80C2453
:1039E000C3F81024C3F81424C3F81824C3F81C2403
:1039F000C3F82024C3F82424C3F82824C3F82C24B3
:103A0000C3F8302462B67047012300F01F029340D0
:103A1000400941B1800000F1604000F56140C0F80C
:103A2000803103607047024A203042F820307047EE
:103A300000E100E0F8B50D46EFF3108772B6124EC4
:103A4000D6E8CF2F0123002AFAD1C6E8423F002A48
:103A5000F6D1BFF35F8F0D4B00F110049B680C4A49
:103A600053F82430934203D0994201D000F07CFDFA
:103A7000064B9B6843F82450BFF35F8F0023C6E8D2
:103A80008F3F87F31088F8BDE19F042000ED00E030
:103A900011010010014B0B4403607047D89F0420B4
:103AA00070B5104C104DAC420ED2FF26236863B1A6
:103AB000FFF704FF01462046FFF7ECFFA680BFF3A7
:103AC0005F8F0834AC42F1D370BDFFF7F7FE0146BB
:103AD0002046FFF7DFFF2671BFF35F8F0834AC424B
:103AE000E4D370BD040700200C0700200D4B1A68BA
:103AF000EFF3108172B6D2E8CFCF0120BCF1000FF6
:103B0000F9D1C2E84C0FBCF1000FF4D1BFF35F8FC5
:103B100000221B68C3E88F2F81F3108840BF00206C
:103B20000021704760A104202DE9F04F2DED028B9C
:103B300085B0EFF30583DBB2103B9A0818BF012272
:103B40004FF0010103F0030B18BFAD4DAD4B08BFA3
:103B5000AD4D0BEB820253F8226001FA0BF205F532
:103B600041539FEDA58B01925A6031E0B3881B044D
:103B700040F19580B379002B40F0DF80B6F9083032
:103B8000002B0093C0F205811A46736902EB4204D0
:103B900003EBC403D3E90247B7F1FF3F08BFB4F119
:103BA000FF3F0ED005EB8B01AB6A0A69D21AE31A0C
:103BB000934205D301232A6A03FA0BF3134200D17F
:103BC0000C61284600F0A8FBA042B941C0F2E18098
:103BD000B6F90830019A002B0093EA63C6DBD6F8E9
:103BE000148003EB4309284608EBC907D7E9024ACA
:103BF00000F092FBA04271EB0A01B7DBBAF1000FB3
:103C0000C0F2CD80D7E90431804A934200F00081B0
:103C10007A88B6F9080092B242EA00409847024614
:103C20000B4652EA030100F0BA80002B80F2D580E7
:103C3000B4EB020E6AEB030A38F93930C7E902EA3D
:103C4000002B93DB716903EB430201EBC202D2E963
:103C50000270BE457AEB000C4FEA430286DBB446A5
:103C60002CF8083F06E003EB430001EBC0005A00CC
:103C7000D0E90270BE451A447AEB000001EBC204A1
:103C800004DB31F93230A446002BECDA28F8393065
:103C9000009BACF80030B3881B043FF56BAF336971
:103CA000EFF3108272B6D3E8CF0F01210028FAD1CA
:103CB000C3E8401F0028F6D1BFF35F8F4FF6FF74B3
:103CC000B0880023316900B2B480C1E88F3F82F32D
:103CD00010889842FFF64EAF0746A946746906F170
:103CE000080807EB470E04EBCE03D3E90250B6F900
:103CF0000830C446002B13DBB246009704E034F9C9
:103D000036309446002B09DB03EB430604EBC60276
:103D1000D2E90271BD4270EB0101F0DA5646009F14
:103D2000ACF8007034F93E7024F83E30002FD8DA39
:103D3000B3794D46002B3FF421AF0023B371B6F9A0
:103D4000083006F1080E5F1C009322D09C46706973
:103D500002E08E465A1C16D003EB430200EBC20170
:103D60004C881F46240430F93230F2D5BC4581ED31
:103D7000028BEFD0AEF800303189BC4620F832100B
:103D80005A1C3781E8D16346002BCDF800C0BFF63E
:103D9000FBAE40BF05B0BDEC028BBDE8F08F38F83C
:103DA000393033813369EFF3108272B6D3E8CF0F25
:103DB00001210028FAD1C3E8401F0028F6D1BFF343
:103DC0005F8F7388316928F83930009B7380002336
:103DD000C1E88F3F82F31088C8E62846CDE9022368
:103DE00000F09AFA029A039B10EB020E43EB010AD1
:103DF00022E700BFAFF30080FFFFFFFFFFFFFFFFE1
:103E000000800B4040A1042000000B40293B001023
:103E100008460B69029198470028C0D00299D1E961
:103E20000023FEE62DE9F84F364C25692DB1BDE89B
:103E3000F84F0A213448FFF72DBEDFF8E480032154
:103E4000404600F057FA0326C4F80C80FFF736FD11
:103E50004FF0504C2D4B267003442361DCF80030AA
:103E60000F216370636961801D834FF00405A3F81F
:103E700078504FF00505A3F890504FF00605A3F8D1
:103E8000A8504FF007050E214FF6FF7208274FF09C
:103E90000A0EA3F8C0504FF001094FF00C0C4FF080
:103EA000020B4FF0090A0D204FF00B05A3F8681123
:103EB0001749A280A3F808E1A160A3F848B0A3F8CD
:103EC000F0A0A3F82051A3F838C1A3F85001A3F83B
:103ED0003090A3F86060A3F8D8701A800D4B30467C
:103EE000C8F820700C49DC60FFF7A4FD4946304655
:103EF000FFF78AFD094B0A211F640348BDE8F84F0C
:103F0000FFF7C8BDEC06002060A10420D89F042064
:103F1000FFFF100040A10420293B001000200B40AF
:103F200000000B400146F0B50069EFF3108772B650
:103F3000D0E8CF5F0124002DFAD1C0E8454F002D15
:103F4000F6D1BFF35F8FB1F902E04C690EEB4E0C76
:103F5000BEF1000F4FEACC05086904EBCC0C3CDB4A
:103F6000665B4E800026C0E88F6F87F31088BCF830
:103F70000200CCE902230130C0F30E00012838BF53
:103F80000120059BACF80200CCF81030069B40EAFB
:103F90000E40CCF814300B69EFF3108272B6D3E800
:103FA000CFCF0127BCF1000FF9D1C3E84C7FBCF1A2
:103FB000000FF4D1BFF35F8F8B886353A1F804E047
:103FC0000B69C3E88F6F82F310880122CB680978F0
:103FD00003F501538A405A60F0BD0023C0E88F3FCB
:103FE00087F310884FF0FF30F0BD00BF03464089D3
:103FF000B0EB214F37DD58690A1402EB420210B5CD
:1040000000EBC2001C69EFF3108C72B6D4E8CFEF5E
:104010000122BEF1000FF9D1C4E84E2FBEF1000F0E
:10402000F4D1BFF35F8F428889B292B28A4207D03F
:1040300000221B69C3E88F2F8CF31088002010BD6D
:1040400042F4004242800121002218699971C0E8BF
:104050008F2F8CF310881C78DA68084602F501531C
:10406000A140596010BD0020704700BF2DE9F0410C
:1040700082B004460E4600F057F94FF0FF326FF061
:104080000043241846EB0106A24273EB06013CBF35
:1040900014461E46A51F46F1FF37AC4276EB0703D8
:1040A0003CBF00252F4600F03FF9281A67EB010CB2
:1040B00001287CF1000C06DA2046314602B0BDE84A
:1040C000F04100F03BB900F02FF9854267EB0101A8
:1040D00000290ADB0021174B2A46009316483B466D
:1040E0000191FFF71FFF0130E6D04FF0000C134A9B
:1040F0001349536A9F4204D8906AA842DCD29F4277
:10410000DAD10B68EFF3108072B6D3E8CF8F5FF08F
:10411000010EB8F1000FF8D1C3E848EFB8F1000F75
:10412000F3D1BFF35F8F0B68C3E88FCF80F31088A4
:1041300020BFDEE7ED3A0010EC06002000000B4047
:1041400060A104202DE9F04182B0064600F0ECF8B1
:104150004FF47A7304464FF0FF306FF00042E6FBF5
:104160000341A04272EB01033ABF044615460D46D7
:10417000A61F45F1FF37B44275EB07033CBF00268D
:10418000374600F0D1F8301A67EB0101012871F1D0
:10419000000106DA2046294602B0BDE8F04100F0F1
:1041A000CDB800F0C1F8864267EB010100290ADBB7
:1041B0000021174B3246009316483B460191FFF70A
:1041C000B1FE0130E6D04FF0000C134A1349536A98
:1041D0009F4204D8906AB042DCD29F42DAD10B6889
:1041E000EFF3108072B6D3E8CF8F5FF0010EB8F115
:1041F000000FF8D1C3E848EFB8F1000FF3D1BFF3D7
:104200005F8F0B68C3E88FCF80F3108820BFDEE795
:10421000ED3A0010EC06002000000B4060A10420E5
:104220002DE9F04306460D4683B0EFF30584E4B272
:104230003CB12D4B5A6AAA421CD2002003B0BDE803
:10424000F0832A4FD7F80C9097F80080484600F08A
:1042500063F808F1040859F828301B1A301A65EB86
:104260000101984271F1000110DB20BF1E4B5A6A18
:10427000AA42E2D314BF012400249B6AB34234BF94
:10428000204644F0010003B0BDE8F08300F04CF894
:10429000864265EB0101002914DB154B3846CDE958
:1042A000003432462B46FFF73DFE011E0ADD0E4B61
:1042B0005A6AAA4216D39B6AB34211D30B48FFF73E
:1042C00095FEB6E7084B5C6AAC42B6D3641B18BFD8
:1042D00001249B6AB34234BF204644F00100ADE79D
:1042E000AA42EBD120BFE9E700000B40EC0600201A
:1042F000ED3A001010B4054B054C064AA04214BF1D
:104300001846581C5DF8044BFFF76CBA04A1042052
:1043100000800B40B84F00100346416A0A46986A75
:10432000596A8A42FAD17047034B596A0A46986A19
:10433000596A9142FAD1704700000B40074A536A0C
:104340009942FCD8994207D1044B02E05A6A914243
:1043500002D19A6A9042F9D8704700BF00000B4022
:1043600070B4039D04682D0345EA03451B4B002CE4
:10437000B3FBF1F3B2FBF3F61FDB194A194B904282
:1043800014BF4FF480424FF40042174C1A6003F5FB
:1043900080531A60A36832EA0303FBD1212200F59F
:1043A00040530433016086601A600268002AFCDA18
:1043B0000822C5601A6070BC7047036803F03F03B1
:1043C0008B42DAD18368C3F30B03B342D5D1C36800
:1043D00003F4EE23AB42D0D1EDE700BF001BB700E2
:1043E00000800540002002400000024030B44FF041
:1043F00080441C4B1C60E0B11B4CA3F54053DC61B6
:104400001A4C40F0010044401C62596298624FF01F
:1044100080454FF0E061134B1548164C1D608460D9
:1044200019604AB930BC4FF00042A3F580531A60BE
:104430007047114BD861EAE74FF47A7303FB02F23D
:10444000B2F1807F2ABF6FF07F4313461A464FF0C8
:1044500080410A4C08482360094B426030BC196017
:10446000704700BF00B00D40D3C007B02D3FF84FDC
:1044700000A00140F3FFFF0100800D403CA104209B
:1044800000A00D40012300EB4000800000F18040BF
:1044900000F5841041600360704700BF002370B5D1
:1044A000DB8A04460D46002242E800F2520254BF65
:1044B0001021042144F25220984786462B4622467A
:1044C000F446BDE870400A214FF48170604700BF98
:1044D0000023DB8A002242E800F2520201D41021BC
:1044E00018470421184700BF08B5034608462BB1FA
:1044F00093FAA3F3B3FA83F341F020001946FFF7D0
:10450000CDFF00BF034AD2F82838002BFBD0BFF301
:104510005F8F704700000E400021044B044ABFF338
:104520005F8F43F8041B9342F9D170470C080E408B
:104530002C080E4010B44FF48D704FF42A64064AD4
:10454000064B07491460D06019605368002BFCDAF1
:104550005DF8044B704700BF0080044000A0044099
:1045600000B0FA00704700BF08B50148FFF706F930
:10457000DC4F001038B5054C054DAC4204D254F860
:10458000043B9847AC42FAD338BD00BF284F001017
:10459000684F001010B40748074C084B084A0949F7
:1045A00004601A608B6832EA0303FBD15DF8044BA8
:1045B000704700BF002002407F3BEFEF0030024019
:1045C000F6FFF30300000240044BDB6CB3F5004F31
:1045D00003D14FF48022024BDA647047000011507F
:1045E000002011504FF0E022044BD2F8881D0B43FD
:1045F000C2F8883D10EE3004704700BF030330005E
:104600006FF06041044B054A19609368DB4333F057
:104610006043FAD1704700BF003002400000024002
:1046200010B545F25320FFF753FFBDE81040034695
:104630000420184710B545F25320FFF749FFBDE8A5
:104640001040034601201847FFF74CB91449154B99
:1046500070B55C1AA610442E324628BF4422124D73
:104660009200284600F0F4FBB4F5867F13D80F4A79
:10467000C6F1440012D02B19410803EBC101C3E974
:10468000002208338B42FAD1C30704D520F0010081
:10469000304445F82020064B9D6070BD4320F8E76C
:1046A0000000001010010010000000201101001097
:1046B00000ED00E0002370B52B4C82B0C4F88430CC
:1046C000FFF738FF0122294BDA63636C012BFCD121
:1046D0000321264A244B11639C6B012CFCD102263A
:1046E000052521460523224A22480096FFF738FE79
:1046F00021462B46204A21480095FFF731FE002233
:10470000042031461E4BFEF73BFE21462846002280
:104710001C4BFEF735FE0022082011461A4BFEF70F
:104720002FFE002209201146174BFEF729FE00221A
:1047300006201146134BFEF723FE0022114B0720E3
:104740001146FEF71DFE0420FEF782FE00240F4BEB
:10475000A3FB0035AD0CE0B229460134FFF792FE11
:10476000062CF8D102B070BD0000014000300140BD
:10477000002F685900000540008C864700800540E6
:10478000001BB70080D1F008006CDC0283DE1B4305
:1047900000B9704700F002B910B5094B84B01C682D
:1047A0004CB1034600914FF0FF3203A90548A047E2
:1047B000012004B010BD00F033F9204604B010BD54
:1047C00038A104209147001000BEFDE708B5FFF7AF
:1047D000FBFF00BF38B5064C064DFFF7CBFEAC42E1
:1047E00004D254F8043B9847AC42FAD338BD00BF1A
:1047F000684F0010704F00100368084611461847B4
:104800002DE9F0411546427D07468846002A46D0EC
:10481000002D1DDD0B780A2B23D0012D4FF0000C4D
:1048200018D04646012416F8012F21460A2A04F121
:10483000010422D0A542F6D165450BDC08EB050347
:1048400013F8013CA3F10D03B3FA83F35B093B7545
:10485000BDE8F0813B68A5EB0C0108EB0C00984724
:10486000ECE7037D002BD8D1036802210F4898475D
:10487000012DE3D04FF0010CD3E716F8013C0D2BCE
:10488000D8D08C4508EB0C00A1EB0C0101DA3B6899
:104890009847022105483B689847A446CAE729463D
:1048A00040463B68BDE8F041184700BFE4510010A6
:1048B0002DE9F04782B00D4691461C460646FFF7AB
:1048C00033FD4FF0FF3C6FF000472E4A821841F154
:1048D0000003944577EB03013CBF62463B462A4800
:1048E00000F01EFB6B1C804640D00CB3274F284BBA
:1048F0001C68B4B1B9F1000F1CD1DFF89C9001E045
:10490000246974B12368002BFAD0D9F800300BB1B8
:104910009C42F5D120462A463146B8472469002CEE
:10492000F0D1B8F1000F26D1284602B0BDE8F087DB
:10493000184FDCE74FF00A0ADFF85C9002E02469C8
:10494000002CEED02368002BF9D0D9F800300BB141
:10495000A342F4D12A4631462046B84701222046D8
:104960000DF107018DF807A0B847E8E7304600F0E1
:104970001DFA0546B9E7044800F0CAFA284602B015
:10498000BDE8F08740420F000407002001480010F6
:1049900030A10420F947001034A10420F0B583B001
:1049A00006468DF80700FFF7BFFC4FF0FF356FF0AC
:1049B0000044174A821841F10003954274EB030149
:1049C0003CBF23462A46134800F0AAFA124B07467A
:1049D0001C689CB1114D01E024697CB12368002B57
:1049E000FAD02B680BB19C42F6D1204601220DF182
:1049F0000701FFF705FF2469002CEFD117B93046F6
:104A000003B0F0BD034800F083FA304603B0F0BDB8
:104A100040420F000407002030A1042034A10420EC
:104A200038B5044600F0C2F9012305461A4620466F
:104A30002946FFF73DFF084B1C682CB163682BB17A
:104A400098472469002CF9D1284638BD2469002CE8
:104A5000F4D1284638BD00BF30A104200123074807
:104A60000749084A03600B609368D907FCD5012306
:104A7000054A13601368DB05FCD57047002002402F
:104A8000003002400000024000000A4010B5054C12
:104A900082B001460F23002200940348FEF7CEFEA9
:104AA00002B010BD3850001064A104202DE9F84F69
:104AB0000D460646FEF77AFE012395F8048095F927
:104AC00005C006F12F4E3D4F0EF5600E03FA08F3B8
:104AD0004FEA1E5EBCF1000F57F82E1003F1FF33B2
:104AE000C8F120043CDBA44503DC03FA0CF20A42C3
:104AF00006D04FF0FF34FEF76BFE2046BDE8F88F7E
:104B0000D6F86821EC79002A4AD162073AD4644683
:104B100003FA0CF30B403CD1B8F1000F19D02A680E
:104B2000A2F1020939F802AF0CEB0308BAF5005FF5
:104B300008F112080CEB0A0B35D246F828B02A7996
:104B400001339A42EED801239340013B03FA0CF360
:104B5000194347F82E10FEF73BFE2046BDE8F88FBC
:104B6000002C02DA15E0013C13D303FA04F20A42E6
:104B7000A446F8D1D6F86891EA79B9F1000F19D1B5
:104B80005207C5D56FF00A04FEF722FE2046BDE8A5
:104B9000F88F6FF00804FEF71BFE2046BDE8F88F83
:104BA000E407B4D5EEE746F828A02A7901339A4203
:104BB000B8D8C8E7D207ABD5E4E700BFF89F042018
:104BC0002DE9F041D0F868419DF81860121B1F2AAA
:104BD00038D84EF29F044EF280054FF4003801EBB6
:104BE000410C002E18BF254600EBCC0404F54354BD
:104BF00000EBCC0C052BDCF8DC704FEA410EDCF846
:104C0000CC60C4F80C800CD95401053B44F0A0548E
:104C10000532052BCCF8DC4002F01F02CCF8D8504E
:104C2000F2D8714400EBC1010020520142EA8363D3
:104C3000C1F8DC30C1F8D850C1F8DC70C1F8CC60E4
:104C4000BDE8F0816FF00400FAE700BFF0B5012580
:104C500004688D4024EA05040460B3B31C6801EBCA
:104C6000410C00EBCC0CCCF8C8409C68CCF8D04090
:104C70005C68CCF8CC40DB68CCF8DC304FEA410C07
:104C80000CEB01034FF0013500EBC30C4FF0004675
:104C900000EBC30E01230EF5865E0C1D01F1080723
:104CA0008D40CEF8106003FA04F4CEF8106002F0E4
:104CB0001F028560BB4000F5005004600EF1100E2D
:104CC00003600020CCF8D820F0BD4FF480374FF4BB
:104CD00040264FF4F83501EB410400EBC404C4F85E
:104CE000C8704FEA410CC4F8D060C4F8CC50C4F886
:104CF000DC30C5E7012302681A4205D14278002A58
:104D000004D14370012070470020FCE7FFDEC0465D
:104D1000012303607047C046F0B5830741D005000A
:104D200004000327861804E0297001353B4204D0B3
:104D30001C00631CB442F7D1F0BD013A8218121B6B
:104D4000032A25D9FF240C4025022D192C042D19E6
:104D50000F2A28D91C0013002600103B1B091B0139
:104D600010369B1925606560A560E5601034A3428C
:104D7000F8D10F240C26144016402200002E07D034
:104D8000A2089200D21820C39342FCD103222240F1
:104D9000002AD1D0C9B29A18197001339A42FBD1B6
:104DA000CAE70300CCE71400EAE7C04610B5830762
:104DB0000AD00300032102E001330B4205D01A7828
:104DC000002AF9D1181A10BD030019680C4A0D4CBD
:104DD0008A188A4322420FD15968094A04338A1833
:104DE0008A43224208D15968054A04338A188A4303
:104DF0002242F1D000E001331A78002AFBD1E1E72A
:104E0000FFFEFEFE8080808030B5032A0CD90B00A7
:104E100003439B0719D104680B689C4215D1043ADF
:104E200004300431032AF6D8551E002A0BD0002383
:104E300003E05A1C9D4206D01300C25CCC5CA24227
:104E4000F7D0101B00E0002030BD551EEFE7C04634
:104E5000F0B5CE46474680B50F2A0ED80500561E3F
:104E6000002A06D00023CC5C1A00EC540133964291
:104E7000F9D1C0BCB946B046F0BD03000B4388462B
:104E80009B0734D110261700B1460C000300103FD9
:104E90003F093F01C519A94466685E60A6689E6027
:104EA000E668DE60266810341E601E001033AE42D5
:104EB000F2D1CF1939000F230C2610318C46134044
:104EC000164217D04446043B9B089B00FF1814373A
:104ED000061B0C688D1904312C60B942F9D161466A
:104EE000043359184B441D0003231A40B7E705004B
:104EF000561EB7E74D461A00B1E7C046F8B5C046A2
:104F00005FF800F0CD0300205FF800F0A904002056
:104F10005FF800F0E50100205FF800F021030020B9
:104F20005FF800F07D01002021460010954500103B
:104F3000C9450010B5460010014600101945001083
:104F40004946001005450010A13A00104D460010DA
:104F5000253E00106545001035460010E54500105F
:104F6000D5380010C93900105D0200106D330010F3
:104F700053797374656D20636C6F636B206F66206B
:104F80002575206B487A2063616E6E6F74206265B0
:104F90002065786163746C79206163686965766502
:104FA000640000000A2A2A2A2050414E4943202A40
:104FB0002A2A0A000A00000048617264776172655B
:104FC00020616C61726D20256420616C7265616482
:104FD0007920636C61696D656400000048617264EA
:104FE000206173736572740052656C65617365004E
:104FF000626F6F74325F7732357130383000000085
:10500000322E322E312D646576656C6F7000000093
:105010007069636F32000000617564696F5F626F71
:105020006F746C6F61646572000000004D617220E6
:1050300031342032303236004E6F20444D412063EF
:1050400068616E6E656C732061726520617661695E
:105050006C61626C65000000050506070708090021
:10506000000000003000000030120000003000009E
:10507000000030007C50001004FF01002162231169
:10508000001442A4000000006410B71DC8206E3B4D
:10509000AC30D9269041DC76F4516B6B5861B24D3F
:1050A0003C7105502083B8ED44930FF0E8A3D6D6A9
:1050B0008CB361CBB0C2649BD4D2D38678E20AA011
:1050C0001CF2BDBD10111200080709060A050B04E9
:1050D0000C030D020E010F0001000200030004008A
:1050E0000500070009000D00110019002100310022
:1050F000410061008100C100010181010102010341
:10510000010401060108010C011001180120013001
:1051100001400160000000000101020203030404D9
:10512000050506060707080809090A0A0B0B0C0CF7
:105130000D0D000003000400050006000700080034
:1051400009000A000B000D000F00110013001700EA
:105150001B001F0023002B0033003B0043005300C3
:10516000630073008300A300C300E300020100009A
:105170000000000000000000010101010202020223
:1051800003030303040404040505050500000000EF
:1051900006005250D3F07542E84F001006005250FE
:1051A000E182887FF04F001006005250ABB360538D
:1051B0000050001006005250BBFF3CB610500010CB
:1051C00006005250861C0302185000100600525070
:1051D0005422A29D2C50001005005250DE65F46848
:0851E0001C5800100D0A00002C
:0851E80000B3FF0F01000000FD
:1051F000905100109C510010A8510010B4510010A3
:0C520000C0510010CC510010D85100101B
:10520C004FF050412DE9F0410027044616461D464B
:10521C00D1F8008008E0C1E88F7F8CF3108830460D
:10522C00294600F0D5FAE8B92168EFF3108C72B674
:10523C00D1E8CF2F0123002AFAD1C1E8423F002A3E
:10524C00F6D1BFF35F8F94F904302168002BE2DABA
:10525C00002384F80480C1E88F3F8CF31088012070
:10526C00BDE8F0810020BDE8F08100BF30B50468D6
:10527C00EFF3108C72B6D4E8CFEF0125BEF1000F1E
:10528C00F9D1C4E84E5FBEF1000FF4D1BFF35F8FCC
:10529C0090F904400568002C10DB0021C5E88F1F35
:1052AC008CF310884FF0504595F90050A54201D170
:1052BC00084630BDBDE83040FFF7A2BF4FF050426A
:1052CC00126800230271C5E88F3F8CF3108801200F
:1052DC0030BD00BF0368EFF3108272B6D3E8CFCFB6
:1052EC000121BCF1000FF9D1C3E84C1FBCF1000F38
:1052FC00F4D1BFF35F8F4FF0FF0C0023016880F8EF
:10530C0004C0C1E88F3F82F3108840BF704700BFD4
:10531C0010B40A4C23786BB9094BC3F1804103F5E7
:10532C00807001F56021CA5843F8042F8342FAD1EA
:10533C00012323705DF8044B704700BF66A1042065
:10534C0000A00420004B184705A00420034B1A6A48
:10535C0002609A6A42605B6A8360704700000D408D
:10536C0008B500234021DB8A44F246409847006888
:10537C0008BD00BF10B5044600F006F9084B2046E6
:10538C005A68E2609A682261DA6862611A69A261FD
:10539C005A69E2619B692362BDE81040FFF7D6BFF2
:1053AC000000044010B50446FFF7DAFF1CB100887A
:1053BC00C0F3033010BD0A2010BD00BF10B5044669
:1053CC000120FFF7EFFF38B92268074B1A626268B9
:1053DC009A62A2685A6210BD4FF480514AF20202DE
:1053EC00014BD9621A6310BD00000D40C168074A19
:1053FC005160016991604169D16081691161C16934
:10540C005161036A9361FFF7D9BF00BF00000440EC
:10541C002DE9F0434318B3F5800F04460D468BB0CD
:10542C0049D80023DB8A002242E800F2560254BF1E
:10543C001021042144F24960984700238146DB8AFD
:10544C00002242E800F2500254BF1021042145F61C
:10545C004500984700238046DB8A002242E800F290
:10546C00510254BF1021042144F25250984700239A
:10547C000746DB8A002242E800F2520254BF102198
:10548C00042144F2463098470646FFF741FF01A835
:10549C00FFF770FFC847C047D8234FF48032294626
:1054AC002046B847B047FFF74DFF01A8FFF79EFF16
:1054BC000BB0BDE8F08300F087F9B2E72DE9F047B7
:1054CC008318B3F5800F0446154688468AB047D832
:1054DC000023DB8A002242E800F2560254BF10215E
:1054EC00042144F24960984700238246DB8A00225B
:1054FC0042E800F2500254BF1021042145F6450049
:10550C00984700238146DB8A002242E800F25102D0
:10551C0054BF1021042145F252009847002307463E
:10552C00DB8A002242E800F2520254BF102104210F
:10553C0044F2463098470646FFF7EAFE01A8FFF70B
:10554C0019FFD047C8472A4641462046B847B047BE
:10555C00FFF7F8FE01A8FFF749FF0AB0BDE8F08796
:10556C0000F032F9B4E700BF0144884206D20023B0
:10557C0002F1C052835408308142FBD8BFF34F8FE5
:10558C00BFF36F8F704700BF01224FF48041014879
:10559C00FFF7EABF00C0FF03002B11D1002A0FD187
:1055AC00002900D1002802D00021C943080007B40B
:1055BC00024802A14018029003BDC046B50100008C
:1055CC0003B4684601B5029800F006F8019B9E46AC
:1055DC0002B00CBC7047C046F0B557464E46454627
:1055EC00DE46E0B504000D009246994683B08B422E
:1055FC0030D82DD04946504600F0DAF82900060084
:10560C00200000F0D5F8331A9846203B34D49B4642
:10561C0053465A46934042461F00534693401E0041
:10562C00AF423BD8AF4200D179E05B46A41BBD41F1
:10563C00002B00DA76E00022002300920193012374
:10564C005A4693400193012342469340009329E02C
:10565C008242CFD900220023009201930C9B002B95
:10566C0001D01C605D600098019903B0F0BCBB4692
:10567C00B246A946A046F0BD42469B4620239B1A43
:10568C005246DA40414613004A468A4017004246C9
:10569C001F43534693401E00AF42C3D90022002340
:1056AC00009201934346002BD8D0FB0772081A4393
:1056BC0046467B080EE0AB4201D1A2420CD8A41A9C
:1056CC009D41012024196D410021013E24184D41BA
:1056DC00002E06D0AB42EED9013E24196D41002EAE
:1056EC00F8D1009801995B4600196941002B24DB25
:1056FC002B005A464646D3402A001C00F2405B461B
:10570C001500002B2ADB26009E403300260047465E
:10571C00BE403200801A9941009001919EE7A3424D
:10572C00BCD882E74246202300219B1A002200911C
:10573C0001920122DA40019285E7424620239B1A0E
:10574C002A0046469A402300F340464613432A005B
:10575C001C00F2405B461500002BD4DA2023424695
:10576C002F009B1B97402600DE403B003343CDE7C8
:10577C007047C0461C2101231B04984201D3000C26
:10578C0010391B0A984201D3000A08391B099842A8
:10579C0001D30009043902A2105C40187047C046BE
:1057AC0004030202010101010000000000000000DE
:1057BC0010B5002903D1FFF7DDFF203002E008000F
:1057CC00FFF7D8FF10BDC0465FF800F06945001028
:1057DC005FF800F0214200101000000000000000F3
:1057EC0000000000000000000000000000000000AD
:0C57FC001007002000000000000000006A
:10580800D3DEFFFFFE010000FF01000030A9FFFF0B
:04581800793512AB21
:040000051000014D99
:00000001FF
